:020000040800F2
:10000000000400206D0300088F230008BB220008B5
:100010008D230008E30600083128000800000000D6
:10002000000000000000000000000000D7260008CB
:10003000E50600080000000091230008D92600080A
:100040008703000887030008870300088703000868
:100050008703000887030008870300088703000858
:100060008703000887030008870300088703000848
:100070008703000887030008870300088703000838
:100080008703000887030008870300088703000828
:100090008703000887030008870300088703000818
:1000A0008703000887030008870300088703000808
:1000B00087030008870300088703000887030008F8
:1000C00087030008870300088703000887030008E8
:1000D00087030008870300088703000887030008D8
:1000E000870300088703000800000000870300085A
:1000F00087030008870300088703000887030008B8
:1001000087030008870300088703000887030008A7
:100110008703000887030008870300088703000897
:100120008703000887030008870300088703000887
:100130008703000887030008870300088703000877
:1001400000000000000000000000000000000000AF
:100150008703000887030008870300088703000857
:100160008703000887030008870300088703000847
:1001700087030008870300088703000800000000C9
:100180008703000887030008870300088703000827
:100190008703000887030008870300088703000817
:1001A0008703000887030008870300080000000099
:1001B00087030008870300088703000887030008F7
:1001C000870300088703000800000000000000000B
:1001D000000000000000000087030008000000008D
:1001E000000000000000000000000000000000000F
:1001F00000000000000000008703000887030008DB
:100200008703000887030008000000008703000838
:100210008703000887030008870300088703000896
:1002200087030008000000008703000800000000AA
:100230008703000887030008000000008703000808
:100240008703000887030008870300088703000866
:100250008703000887030008870300088703000856
:100260008703000887030008870300088703000846
:1002700087030008870300088703000800000000C8
:100280008703000887030008870300088703000826
:10029000000000008703000887030008000000003A
:1002A0000000000087030008870300088703000898
:1002B00087030008870300088703000887030008F6
:1002C00087030008870300088703000800F002F88E
:1002D00000F03CF80AA090E8000C82448344AAF1A4
:1002E0000107DA4501D100F031F8AFF2090EBAE8A2
:1002F0000F0013F0010F18BFFB1A43F0010318475A
:10030000D827000008280000103A24BF78C878C118
:10031000FAD8520724BF30C830C144BF04680C600B
:10032000704700000023002400250026103A28BF53
:1003300078C1FBD8520728BF30C148BF0B60704757
:100340001FB502F0BBFB1FBD10B510BD00F058F883
:100350001146FFF7F5FF02F075FB00F076F803B4E5
:10036000FFF7F2FF03BC00F07DF80000094880476A
:1003700009480047FEE7FEE7FEE7FEE7FEE7FEE787
:10038000FEE7FEE7FEE7FEE704480549054A064B9F
:100390007047000071270008CD02000848010024C2
:1003A0000004002048030024000000204FF0000259
:1003B00000B5134694469646203922BFA0E80C505B
:1003C000A0E80C50B1F12001BFF4F7AF090728BF36
:1003D000A0E80C5048BF0CC05DF804EB890028BFB2
:1003E00040F8042B08BF704748BF20F8022B11F0DB
:1003F000804F18BF00F8012B704770477047704757
:10040000754600F02BF8AE4605006946534620F0CD
:100410000700854618B020B5FFF7B6FFBDE82040BD
:100420004FF000064FF000074FF000084FF0000BB0
:1004300021F00701AC46ACE8C009ACE8C009ACE863
:10044000C009ACE8C0098D46704710B50446AFF34B
:1004500000802046BDE81040FFF781BF004870478C
:10046000E400002401491820ABBEFEE7260002008C
:100470007047000001220248114600F045BA000012
:100480000008025800220248012100F03DBA000095
:10049000000802587047000001220248082100F0BD
:1004A00033BA00000008025800220248082100F078
:1004B0002BBA000000080258704730B54FF47A7527
:1004C000044602E0284600F004F8601E84B2F9D227
:1004D00030BD4FF0E02370B55D69C0EB0010996945
:1004E0004401002298698842FCD002D2A1EB0001AD
:1004F00002E0A5EB000631440A440146A242F1D3D2
:1005000070BD10B5FFF7C6FFFFF7D6FF02F0A2F9E6
:10051000044602F027FA204310BD00002DE9FC41FB
:100520000746164600200D4600900190FFF7AAFFEF
:10053000922000F0BDF806226946122000F09AF8D9
:10054000FFF798FF9DF801009DF80010484C00024D
:1005500000B2084300EE100AD4ED000AB8EEC00A5B
:1005600020EE200A85ED000A9DF803009DF8021098
:10057000D4ED000A000200B2084300EE100AB8EE03
:10058000C00A20EE200A85ED010A9DF805009DF8BD
:100590000410000200B2084300EE100AB8EEC00AD0
:1005A00020EE200A85ED020AFFF77EFF0822694649
:1005B000002000F05FF8FFF76FFF9DF800000F28A4
:1005C00030D19DF803009DF80210D4ED010A00021D
:1005D00000B2084300EE100AB8EEC00A20EE200A6E
:1005E00087ED000A9DF805009DF80410D4ED010A7E
:1005F000000200B2084300EE100AB8EEC00A20EE76
:10060000200A87ED010A9DF807009DF806100002F8
:1006100000B2084300EE100AB8EEC00A20EE200A2D
:1006200087ED020AFFF72EFFA22000F041F8022218
:100630006946222000F01EF8FFF71CFF9DF800100D
:100640009DF80100C90041EA5010B0F5806F01DB50
:10065000A0F5006000EE100AB4EE001AF3EE070AEF
:10066000B8EEC00A40EE010AC6ED000ABDE8FC8102
:100670001800002470B540F0800014460D4600F0CC
:1006800017F806E0552000F013F8641E05F8010B7A
:10069000E4B2002CF6D170BD10B540F080000C46DD
:1006A00000F006F8552000F003F8207010BD00009F
:1006B00001B582B04FF47A700123009001AA03487B
:1006C00002A901F04BFC9DF804000EBD5C00002463
:1006D00010B50C46FFF7ECFF2046BDE81040FFF7D1
:1006E000E7BFFEE7704772B6FEE700002DE9F84F5E
:1006F00003247A4D00234FF001094FF0B04B4FF027
:100700000F0AE4E009FA03F6324078D00F7907F0D7
:100710000307012F01D0022F1AD187684FEA430E39
:10072000D1F80CC004FA0EF827EA08070CFA0EFC00
:100730004CEA070CC0F808C0476891F804C0B743FA
:10074000CCF3001C0CFA03FC4CEA070CC0F804C004
:100750000E79F643B6070BD0C6684FEA43088F6898
:1007600004FA08FC26EA0C0607FA08F73743C760C4
:100770000E7906F00306022E12D1DE080F694FEA49
:10078000437C00EB8606B646366A4FEADC6C0AFA12
:100790000CF807FA0CF726EA08063743CEF8207063
:1007A0000F7906684FEA430807F0030704FA08FCCC
:1007B00007FA08F726EA0C06374307604E6816F476
:1007C000403F1CD0464E376847F002073760366816
:1007D0009F0706F00206009623F0030606F1B046D6
:1007E000B6463F0FD6F80864DFF8F8800AFA07FC2F
:1007F000404526EA0C0603D14FF0000C3AE065E0D4
:10080000DFF8E4C0604502D14FF0010C32E0DFF8C0
:10081000DCC0604502D14FF0020C2BE0DFF8D0C005
:10082000604502D14FF0030C24E0DFF8C8C06045FA
:1008300002D14FF0040C1DE0DFF8BCC0604502D1CE
:100840004FF0050C16E0DFF8B4C0604502D14FF060
:10085000060C0FE0DFF8A8C0604502D14FF0070C8E
:1008600008E0DFF8A0C0604502D14FF0090C01E0BC
:100870004FF00A0C0CFA07FC4CEA060CCEF808C440
:100880004F68DBF80060FF0226EA020600D5164337
:100890005F46CBF80060D1F804C0DBF804605FEA83
:1008A0008C2C26EA020600D516437E606E684F68DF
:1008B00026EA0206BF0300D516436E602E684F6815
:1008C00026EA0206FF0300D516432E605B1C0A6869
:1008D00032FA03F67FF416AFBDE8F88F80000058B7
:1008E000F44402580000025800040258000802585C
:1008F000000C025800100258001402580018025848
:10090000001C0258002402580AB181617047090492
:10091000FBE70000014880687047000004000024E5
:100920000248816802781144816070470400002405
:10093000032010B500F0C6F800F0CCFE0F4A1049B5
:1009400014681368C4F3032203F00F038A5CC95CC4
:1009500002F01F0201F01F01D0400A4A20FA01F103
:100960001160094908600F2000F010F808B101205B
:1009700010BD00F079F8002010BD000018440258A6
:10098000C62A0008140000241000002470B50D4D84
:1009900004462878A0B14FF47A71B1FBF0F00A490F
:1009A0000968B1FBF0F001F075FC48B9102C07D2D2
:1009B00000222146501E00F065F800206C6070BDDA
:1009C000012070BD0400002410000024154BF0B578
:1009D000083B427813491A600B680A1F23F0010391
:1009E0000B6043681360057BC67A827A437B2D07D0
:1009F000847B45EA0665C77B90F809C0067A90F8C3
:100A000000E045EAC24040EA834040EA444040EA10
:100A1000074040EA0C2040EA460040EA0E00086029
:100A2000F0BD0000A0ED00E0BFF35F8F044800219F
:100A30000368034A23F48033036070321160704707
:100A400024ED00E0074A40F00100064970321060D2
:100A5000086840F480300860BFF34F8FBFF36F8F9A
:100A60007047000024ED00E0054808B5016841F03A
:100A700002010160006800F00200009008BD000063
:100A8000F44402580E4BF0B41B680D46C3F3022326
:100A9000C3F10706042E00D90426191D072901D227
:100AA000002300E0DB1E012404FA06F19C40491EED
:100AB0002940641E994014402143F0BC01F0B9BEA6
:100AC0000CED00E0064900F0070210B54FF6FF04F8
:100AD0000868044B204040EA02201843086010BD1B
:100AE0000CED00E00000FA05134970B50A68D24326
:100AF000520705D5096801F00701814213D118E0BA
:100B00000A6822F0070202430A60FFF703FF0A4D5A
:100B10004FF47A760446083D07E000BFFFF7FAFE7F
:100B2000001BB04201D9012070BD2868C043800479
:100B3000F4D4002070BD00000C4802582DE9FE4F8F
:100B40000546DFF800A450F8081B0024FD4FC943F8
:100B5000019005F1280026460AF1240A00900801B8
:100B60001DD4686E50B1B0F5801F0CD0B0F5001FD9
:100B70000ED0B0F5401F1ED001240FE0386840F4BD
:100B80000030386017E00198022101F003FC03E017
:100B90000098022101F08EFC04000CD02646288823
:100BA000C043C00523D4A86D05281ED2DFE800F09D
:100BB0000C11161B1B006A6EDAF8001021F44011AC
:100BC0001143CAF80010EAE7386840F40030386092
:100BD00009E00198002101F0DDFB03E0009800210D
:100BE00001F068FC0446C4B100E0012426462888D0
:100BF000DFF85083C04308F12C0840052FD4D5F806
:100C0000A400B0F5C00F28D010DCB8B1B0F5001FBB
:100C100019D0B0F5800F0FD11AE0AA6DDAF80010E4
:100C200021F007011143CAF80010E0E7B0F5000F0A
:100C300013D0B0F5200F10D001240FE0386840F435
:100C40000030386009E00198002101F0A3FB03E0C7
:100C50000098002101F02EFC044694B12646288815
:100C6000C043000530D4D5F8A800B0F1407F29D0AA
:100C700011DCC0B1B0F1807F1AD0B0F1007F10D18B
:100C80001BE0D5F8A420D8F8001021F4600111432E
:100C9000C8F80010E3E7B0F1806F13D0B0F1A06F97
:100CA00010D001240FE0386840F40030386009E0CB
:100CB0000198002101F06EFB03E00098002101F093
:100CC000F9FB044694B126462868DFF878B2C043A1
:100CD0000BF1200B80011FD4E86CD8B110280FD085
:100CE000202812D0302815D0012414E0D5F8A820EF
:100CF000D8F8001021F0E0611143C8F80010E3E7D4
:100D0000386840F40030386004E00198022101F0B6
:100D100041FB044674B126462888C043C0042BD446
:100D2000E86DB0F5005F20D00DDCA0B1B0F5805FBC
:100D30000FD115E0EA6CDBF8001021F0300111430F
:100D4000CBF80010E8E7B0F5405F13D0B0F5804F66
:100D500010D001240FE0386840F40030386009E01A
:100D60000198002101F016FB03E00098002101F03A
:100D7000A1FB04468CB126462888C043800429D4B0
:100D8000286EB0F5403F23D010DC08B3B0F5803FAB
:100D900014D0B0F5003F0FD115E0EA6DDAF800107D
:100DA00021F4E0411143CAF80010E5E7B0F5802FC7
:100DB0000ED0B0F5A02F0BD001240AE0019801213C
:100DC00001F0E8FA03E00098012101F073FB04460A
:100DD00094B126462888C04340042AD4D5F8AC00F4
:100DE000B0F1405F23D010DC08B3B0F1805F14D0C5
:100DF000B0F1005F0FD115E02A6EDAF8001021F48F
:100E0000E0211143CAF80010E4E7B0F1804F0ED0A2
:100E1000B0F1A04F0BD001240AE00198012101F0AC
:100E2000B9FA03E00098012101F044FB044674B1D3
:100E300026462888C04300041FD4E86ED8B1B0F11C
:100E4000805F0ED0B0F1005F10D0012414E0D5F81F
:100E5000AC20D8F8001021F0E0411143C8F8001090
:100E6000E7E7386840F40030386004E00198012179
:100E700001F090FA044674B126462868C043C001C8
:100E80001ED4A86CD0B101280ED0022811D003289E
:100E900014D0012413E0EA6EDAF8001021F040517A
:100EA0001143CAF80010E8E7386840F400303860B1
:100EB00004E00198022101F06DFA04466CB1264667
:100EC0002868C043400255D41F48016841F480712E
:100ED0000160FFF71FFD81460EE0AA6CDBF80010F1
:100EE00021F003011143CBF80010E9E7FFF712FDF1
:100EF000A0EB090064283BD813480068C005F5D56D
:100F0000BCBBDFF84090B5F8B01009F14409D9F83E
:100F1000000001F4407100F44070884211D0D9F80B
:100F20000010D9F8002021F4407142F48032C9F851
:100F30000020D9F8002022F48032C9F80020C9F836
:100F4000001003E02C44025800480258D5F8B000C5
:100F5000B0F5807F19D1FFF7DDFC029011E000BFF2
:100F6000FFF7D8FC0299411A41F28830814208D932
:100F7000032426462878DFF81494C043C00721D004
:100F80003CE0D9F800008007EAD5D5F8B010C1F3ED
:100F900001200328FE480DD0016821F47C51016036
:100FA000B5F8B020D9F80010C2F30B021143C9F80C
:100FB0000010DFE7F74A036802EA111223F47C51BC
:100FC0001143ECE7A86F182816D005DCA0B108285B
:100FD00008D0102804D10AE020280DD028280BD0F2
:100FE00001240AE00198012101F0D4F903E00098FE
:100FF000012101F05FFA044664B126462878C04317
:1010000080071ED4686F062819D2DFE800F0160C9E
:1010100011161616AA6FD9F8001021F038011143E5
:10102000C9F80010EAE70198012101F0B3F903E0E3
:101030000098012101F03EFA04467CB100E0012451
:1010400026462878C04340071FD4D5F890000628CC
:1010500019D2DFE800F0160C111616166A6FD9F8CF
:10106000001021F007011143C9F80010E9E70198C9
:10107000012101F08FF903E00098012101F01AFA33
:101080000446A4B100E0012426462878C043800627
:101090002BD4D5F88C00B0F1405F24D011DC10B314
:1010A000B0F1805F15D0B0F1005F10D116E0D5F837
:1010B0009020D8F8001021F007011143C8F8001063
:1010C000E3E7B0F1804F0ED0B0F1A04F0BD0012478
:1010D0000AE00198002101F05DF903E00098022187
:1010E00001F0E8F9044694B126462878C04340064A
:1010F0002BD4D5F89800B0F5406F24D011DC10B394
:10110000B0F5806F15D0B0F5006F10D116E0D5F8AE
:101110008C20D9F8001021F0E0411143C9F80010EB
:10112000E3E7B0F5805F0ED0B0F5A05F0BD00124EF
:101130000AE00198002101F02DF903E00098022156
:1011400001F0B8F9044694B126462878C043000659
:101150002BD4D5F89C00B0F5C04F24D011DC10B3CF
:10116000B0F5005F15D0B0F5804F10D116E0D5F87E
:101170009820D8F8001021F4E0511143C8F800106D
:10118000E3E7B0F5004F0ED0B0F5204F0BD00124AF
:101190000AE00198002101F0FDF803E00098022127
:1011A00001F088F9044654B126462878C043000768
:1011B0001ED4D5F88000B0F5805F0AD00FE0D5F8D6
:1011C0009C20D8F8001021F460411143C8F80010A9
:1011D000EBE70098022101F06DF900B10126D5F886
:1011E0008020D9F8001021F440511143C9F80010B3
:1011F0002878C043C00613D4D5F89400B0F5807F9A
:1012000005D10098022101F055F900B10126D5F869
:101210009420D8F8001021F440711143C8F8001050
:101220002868C043000316D4D5F8A00038B1B0F543
:10123000803F09D0B0F5003F0BD001240AE00198AF
:10124000002101F0A7F803E00098022101F032F933
:1012500004468CB126462868C043400322D4D5F802
:101260008400B0F5801F11D0B0F5001F13D0B0F589
:10127000401F15D0012414E0D5F8A020D8F80010A4
:1012800021F440311143C8F80010E4E7386840F415
:101290000030386004E00098012101F00BF90446A9
:1012A0005CB126462868C043C0031CD4286D70B1C9
:1012B000B0F5803F10D0012414E0D5F88420D9F88F
:1012C000001021F440111143C9F80010EAE7386812
:1012D00040F40030386004E00198022101F05AF82F
:1012E0000446DCB126462868C043800005D4009837
:1012F000022101F0DFF800B101262868C043800315
:101300001BD4E86FB8B1B0F5807F10D0B0F5007F86
:1013100011D0B0F5407F0ED001240DE02A6DDBF82E
:10132000001021F480311143CBF80010DBE738685E
:1013300040F4003038607CB326462868C043C002C1
:1013400007D42A6FDAF8001021F000411143CAF8DF
:1013500000102868C043800207D4AA6EDAF8001093
:1013600021F080711143CAF800102868C043400082
:1013700009D40748016821F4004101600168D5F8EB
:10138000B420114301602868C04306E05444025869
:1013900010440258CFFFFF001DE007D46A6DDBF850
:1013A000001021F040511143CBF800102868C043D1
:1013B000000208D4D5F88820D9F8001021F44001A3
:1013C0001143C9F8001028790024C04300F001003F
:1013D000204309D00EE0EA6FD9F8001021F44071E3
:1013E0001143C9F80010A8E70198002100F0D2FFCE
:1013F00000B106462879C04300F00200204305D121
:101400000198012100F0C6FF00B106462879C043CB
:1014100000F00400204305D10198022100F0BAFF3A
:1014200000B106462879C04300F00800204305D1EA
:101430000098002101F03EF800B106462879C0432B
:1014400000F01000204305D10098012101F032F88E
:1014500000B106462879C04300F02000044304D1BF
:101460000098022101F026F800B916B10120BDE86C
:10147000FE8F0020FBE700002DE9F05F04000F461F
:101480007ED0DFF83882D8F8000000F00F00B842B4
:101490000CD2D8F8001021F00F013943C8F8001021
:1014A000D8F8000000F00F00B84269D12078844DD0
:1014B00040070AD52069296801F07001884204D9E3
:1014C000296821F070010143296020787C4E361D87
:1014D00000070AD56069316801F07001884204D9BB
:1014E000316821F07001014331602078C0060AD5CF
:1014F000A069316801F4E061884204D9316821F4BF
:10150000E061014331602078DFF8B4B180060BF16F
:10151000080B0CD5E1695846DBF8002002F0700298
:10152000914204D9026822F070020A4302602078D6
:1015300080070AD5E068296801F00F01884204D9C4
:10154000296821F00F01014329602078C0073ED0AF
:101550005B49A2682868183920F47060104328603D
:101560006068022818D0032819D00968012819D00A
:10157000490700294ADADFF848A1AAF1080A00E081
:1015800044E0DAF8002022F007020243CAF8002003
:10159000FFF7C0F9814612E009688903E9E70968A5
:1015A0008901E6E7C905E4E7FFF7B4F9A0EB090113
:1015B00041F28830814202D90320BDE8F09F616882
:1015C000DAF8000000F03800B0EBC10FECD1207861
:1015D00080070AD5E068296801F00F01884204D22B
:1015E000296821F00F0101432960D8F80010404616
:1015F00001F00F01B9420BD9016821F00F01394305
:101600000160006800F00F00B84201D00120D4E76B
:10161000207840070AD52069296801F070018842C6
:1016200004D2296821F07001014329602078000765
:101630000AD56069316801F07001884204D23168CE
:1016400021F07001014331602078C0060AD5A069FD
:10165000316801F4E061884204D2316821F4E0612C
:1016600001433160207880060CD5E1695846DBF8EB
:10167000002002F07002914204D2026822F070024F
:101680000A43026000F026F80E492A682B68C2F36C
:10169000032203F00F038A5CC95C02F01F0201F011
:1016A0001F01D040084A20FA01F111600749086083
:1016B00007480068BDE8F05FFFF768B900200052F6
:1016C00018440258C62A0008140000241000002400
:1016D00008000024454970B545480968434B103B54
:1016E00011F0380208D00111082A03D0102A0BD0BB
:1016F000182A0BD0084670BD19688906FBD51968F1
:10170000C1F3C101C84070BD3A4870BD3749374D7B
:1017100018310C1D24350A68096826682D6802F006
:10172000030406F00102C1F30511C5F3CC0515FB56
:1017300002F200EE102AB8EE400AE9B32F4ADFEDBC
:101740002E0AB7EE001A6CB1DFED2D1A012C01D074
:10175000022C43D002EE101A1068F8EE422A81EEF5
:10176000A22A1EE01C68A40611D51B6801EE901A7F
:101770001168C3F3C103F8EE612AD84001EE900A64
:10178000C1F30800F8EE611A81EEA22A0BE001EE27
:10179000901ADFED1C2A00BFF8EE611A106882EE85
:1017A000A12AC0F3080001EE900AF8EE611A40EE9B
:1017B000201A31EE810A00E015E022EE000A1068DE
:1017C000C0F34620401C00EE900AF8EE600A80EE5E
:1017D000201ABCEEC10A10EE100A70BD01EE901A7C
:1017E000DFED092AD8E7002070BD00001044025840
:1017F0000090D00300366E010000003930440258DA
:101800000024744A0024744C001BB74B2DE9F05F90
:1018100004007DD0FF4F2078FE4D1837DFF8F483A9
:10182000103DC00748D0D8F80000396800F03800F3
:10183000102815D0182803D101F0030002280FD07A
:101840006068B0F5803F12D010B1B0F5A02F18D06D
:10185000286820F480302860286820F4802009E07F
:101860002868800328D560680028D2D024E0286842
:1018700040F480302860606888B1FFF74BF8064676
:1018800009E0286840F480202860F0E7FFF742F87C
:10189000801B64287ED828688003F7D50CE0FFF70A
:1018A00039F8064605E000BFFFF734F8801B6428CE
:1018B000F0D828688003F7D42078800756D5D8F868
:1018C0000000DFF85093396810F03800A9F10C09D6
:1018D0000ED0182801D188070AD0E068A8B329687B
:1018E00021F0190101432960FFF714F8064628E0AA
:1018F0002868400702D5E06800288AD0E168286897
:1019000020F0190008432860FFF704F8064606E0B7
:10191000D2E000BFFEF7FEFF801B0228BAD828687D
:101920004007F7D5217CD9F8002022F0FE4242EA98
:101930000161C9F8001019E0FEF7ECFF801B0228D6
:10194000A8D828684007F7D5ECE7FFE7286820F01B
:1019500001002860FEF7DEFF064604E0FEF7DAFF2E
:10196000801B022896D828684007F7D42078C00644
:1019700046D5D8F80000DFF89C92396800F03800AE
:10198000A9F10409082812D0182805D101F0030094
:10199000012800E0CEE00AD0E0690028286820D0C5
:1019A00040F080002860FEF7B5FF064615E0286885
:1019B000C00502D5E06980287ED194F82010D9F8BE
:1019C000002022F07C5242EA0161C9F8001017E0C1
:1019D000FEF7A0FF801B0228A0D82868C005F7D515
:1019E000EBE720F080002860FEF794FF064604E055
:1019F000FEF790FF801B022890D82868C005F7D416
:101A00002078000729D58348616964300029814620
:101A1000016811D041F001010160FEF77BFF06462D
:101A200005E000BFFEF776FF801B022888D8D9F8B2
:101A300000008007F6D510E021F001010160FEF7FB
:101A400069FF064605E000BFFEF764FF801B022821
:101A500070D8D9F800008007F6D42078800623D506
:101A6000A0690028286810D040F480502860FEF754
:101A700051FF064605E000BFFEF74CFF801B022821
:101A800058D828688004F7D50EE020F480502860EC
:101A9000FEF740FF064604E0FEF73CFF801B0228ED
:101AA00048D828688004F7D42078400751D5DFF85B
:101AB0006891D9F8001000E015E141F48071C9F88F
:101AC0000010FEF727FF064605E000BFFEF722FFE5
:101AD000801B64282ED8D9F80000C005F6D54D4EDD
:101AE000A068603601280AD008B1052813D03068F4
:101AF00020F001003060306820F0040002E030681F
:101B000040F001003060A06841F2883A98B1FEF7D9
:101B100001FF81460AE0306840F004003060EEE7E3
:101B2000FEF7F8FEA0EB0901514503D830688007A5
:101B3000F6D50EE072E0FEF7EDFE814606E000BF4E
:101B4000FEF7E8FEA0EB0901514567D83068800731
:101B5000F6D4606A00287CD0DFF8B8A0D8F800106E
:101B60000AF1200A4FF6F87B0AF10408C1F3C2011A
:101B70000329AAF104096DD00228286820F080709A
:101B8000286003D0FEF7C6FE044681E0FEF7C2FEE1
:101B9000064604E0FEF7BEFE801B022875D82868C2
:101BA0008001F7D4E26A40F2F331386854F8283FF4
:101BB000884340EA021018433860217B4FF4FE0C42
:101BC00022894FF0FE47208A4902267D521E401E80
:101BD000A1F5007189B2C2F308021143761E0CEA26
:101BE00000400143484607EA06621143CAF8001064
:101BF000D9F8001021F00101C9F80010D8F8003020
:101C0000266A23EA0B0343EAC601C8F80010D9F894
:101C1000001004E0104402580048025835E0A26960
:101C200021F00C011143C9F800100168E26921F0AC
:101C3000020111430160016841F4803101600168D3
:101C400041F400310160016841F4802101600168C4
:101C500001E06CE020E041F001010160286840F003
:101C600080702860FEF756FE044604E0FEF752FE40
:101C7000001B022809D828688001F7D557E000BF6B
:101C8000FEF748FE001B022802D90320BDE8F09FA2
:101C900028688001F4D44AE039680128DAF80000A5
:101CA00021D0A26A01F0030393421CD1E26AC1F37E
:101CB00005118A4217D1216BC0F30802491E8A42DE
:101CC00011D1616BC0F34622491E91420BD1A16B29
:101CD000C0F30642491E914205D1E16BC0F3066094
:101CE000491E814201D00120D0E7A16C4646D8F8B8
:101CF0000000C0F3CC00814219D0D9F800004D4655
:101D000020F00100C9F80000FEF704FE4FEA0007CA
:101D1000FEF700FEB842FBD0A26C306820EA0B0050
:101D200040EAC2003060286840F0010028600020CE
:101D3000ACE700002DE9F047040029D0594A4FF0E4
:101D400000092068584B594D9042C4F8289006D09D
:101D5000984204D0A84202D0E1680F2918D8E1685F
:101D60004FF0010AE76B0831C9080AEB57167143B7
:101D7000904205D0984203D0A84201D0082907D844
:101D8000904203D0984201D0A84204D1102902D930
:101D90000120BDE8F08794F8810020B9204684F83E
:101DA000809000F085F8022084F8810020680168A6
:101DB00021F0010101602068A1698268B1F1806FA2
:101DC00002F4F81110D16268B2F5800F01D01AB197
:101DD0000AE0A26B22B107E0A26BB2F1805F03D1EF
:101DE000026842F4805202606068400209D5E068EF
:101DF000072806D32068236D026822F480721A43F4
:101E000003E02068026822F480720260A66AE0693A
:101E1000E26B25683043E3680A4310431843A86027
:101E2000D4E90D02D4E90581636A25691843D4F821
:101E300020C00A43266810432843A56DD4E90172E7
:101E4000D4E9123140EA080040EA0C003843084364
:101E5000104318432843F060606868B920688168BF
:101E600021F4C05141F4006181602068816821F44F
:101E7000C06141F4806181602068016D21F0010141
:101E800001656068400206D52068626DC16821F076
:101E900000411143C160C4F8849084F881A00020FF
:101EA00077E700000030014000380040003C00406F
:101EB00070B5B4B0044614212EA8FEF777FAB82105
:101EC0006846FEF773FA2149206888423BD18114A5
:101ED000002017900446CDE900106846FEF72EFE5C
:101EE00008B1FEF700FC1A48016841F48041016026
:101EF000006800F48040339015480838016841F0CC
:101F000004010160016801F004013391016841F0AE
:101F100002010160006802252E95052600F00200EE
:101F2000CDE92F542EA93194CDE932600948FEF74E
:101F3000DDFB68022E90CDE92F5407482EA9CDE98C
:101F40003146FEF7D3FB34B070BD000000380040CE
:101F5000E844025800080258000402582DE9FF4FD7
:101F60000446C06B81B01D4617464009401C1FFA4D
:101F700080FBFEF7CFFC824694F881002E460128B4
:101F800035D1029800287CD0002FFCD0002DFAD04B
:101F900094F8800001282AD04FF0010984F880903D
:101FA00005224FF0000884F88120C4F88480676619
:101FB000A4F86A50A4F868500299E165A4F8625048
:101FC000A4F86050C4F87080C4F874802068C168B8
:101FD00021F4C021C160AC492068884205D0AB49DA
:101FE000884202D0AA49884205D1102704E0022085
:101FF00005B0BDE8F08F082741686FF30F01294352
:1020000041602068016841F0010101606068B0F53D
:10201000800F04D12068016841F400710160E0681C
:102020000F284CD9BF0838E020684169890710D5CE
:102030007EB1F119A9420CD9E16D09680162E06D28
:10204000001DE065B4F86200401EA4F86200B4F818
:1020500062602068416905B34269D20703D15D45DA
:1020600010D209040ED5006B616E0860606E001D11
:102070006066B4F86A00401EA4F86A00B4F86A50BA
:102080000BE0EEE0FEF746FCA0EB0A010E98814261
:1020900002D3401C01D004E018B156EA0500C3D1B8
:1020A000C6E0204600F096FAD4F8840084F88080D8
:1020B00040F48070C4F8840084F88190E0E0072840
:1020C00079D97F084BE020684169890710D57EB136
:1020D000F119A9420CD9E16D09880184E06D801CD9
:1020E000E065B4F86200401EA4F86200B4F86260D3
:1020F000206841691DB34269D20709D0008E616E24
:102100000880606E801C6066B4F86A00401E12E0B1
:102110005D4515D20A0413D5008E616E0880606E8D
:10212000801C60662168098E0180606E801C60667C
:10213000B4F86A00801EA4F86A00B4F86A500EE091
:10214000012D01D18904D9D4FEF7E4FBA0EB0A01EB
:102150000E98814202D3401C01D084E060B356EA5D
:102160000500B0D164E020684169890711D586B1C6
:10217000F119A9420DD9E16D097880F82010E06DC0
:10218000401CE065B4F86200401EA4F86200B4F898
:1021900062602068416975B14269D2070DD000BF05
:1021A00090F83000616E0870606E401C6066B4F894
:1021B0006A00401E24E038E055E05D4525D20A045F
:1021C00023D590F83000616E0870606E401C606628
:1021D000216891F830100170606E401C60662168C3
:1021E00091F830100170606E401C6066216891F8B3
:1021F00030100170606E401C6066B4F86A00001F09
:10220000A4F86A00B4F86A500FE0042D02D211F469
:10221000C04FC5D1FEF77EFBA0EB0A010E988142AC
:1022200002D3401C01D01EE0E8B156EA05009AD165
:102230000E9B002208212046CDF800A000F028FACD
:1022400028B1D4F8840040F02000C4F8840020466F
:1022500000F0C0F984F88190D4F8841084F880806C
:1022600081B10120C4E6204600F0B4F9D4F88420FE
:1022700084F8808042F48072C4F8842084F88190CD
:102280000320B5E60020B3E60030014000380040EE
:10229000003C0040401EB0F1807F10B501D301200A
:1022A00010BD4FF0E02460610F21601700F0C1FA0B
:1022B0000020A0610721216110BDFEE710B586B0A6
:1022C00014216846FEF772F81948016841F0800150
:1022D0000160016801F080010591016841F004018D
:1022E0000160016801F004010591016841F00201FB
:1022F0000160016801F002010591016841F00101EE
:102300000160006801220B4C092100F001000590DA
:102310002046FEF7F9FA002109200090012220460C
:10232000CDE9012103916946FEF7E0F906B010BD41
:10233000E0440258000802581348002170B54FF4D9
:102340008024104D056007232202C0E90114C0E972
:102350000331C0E90512016241628162C1624163D9
:102360008163C163016441648164C1640165416545
:102370008165FFF7DFFC002803D0BDE87040FEF761
:10238000B2B970BD003800405C000024FEE7FEE7F3
:10239000704700002DE9F047454D044689464FF04F
:1023A000000A2868C04380070AD0414E283E3068A2
:1023B00020F080603060FEF7ADFA0746B04608E0D6
:1023C0000120BDE8F08700BFFEF7A4FAC01B022879
:1023D00067D8D8F800000001F6D4206829684FF4C7
:1023E000FE0721F47C313E0241EA00302860207A69
:1023F000A389B4F804C040022D4D2D495B1E227CF8
:10240000ACF1010C1035091DA0F5007080B2521E10
:10241000CCF3080C07EA034340EA0C00184306EA31
:102420000262104328600868626920F0C00010430F
:1024300008600A68A06922F0200202430A60281D91
:102440000A6822F010020A6002684FF6F873E46925
:102450009A4342EAC40202600868B9F1000F40F0F2
:1024600010020A6011D00868B9F1010F11D040F4D0
:1024700000100860D8F80000444640F08060C8F8BA
:102480000000FEF747FA05460DE0086840F400201A
:10249000EFE740F48010ECE7FEF73CFA401B02281F
:1024A00001D903208DE720680001F5D5504688E763
:1024B000284402582DE9F047454D044689464FF01F
:1024C000000A2868C04380070AD0414E283E306881
:1024D00020F080503060FEF71DFA0746B04608E055
:1024E0000120BDE8F08700BFFEF714FAC01B0228E8
:1024F00067D8D8F800008000F6D4208829684FF407
:10250000FE0721F07C713E0241EA00502860207AEB
:10251000A389B4F804C040022D4D2D495B1E227CD6
:10252000ACF1010C1835091DA0F5007080B2521EE7
:10253000CCF3080C07EA034340EA0C00184306EA10
:102540000262104328600868626920F4406010430A
:1025500008600A68A06922F4007202430A60281D1C
:102560000A6822F480720A6002684FF6F873E46920
:102570009A4342EAC40202600868B9F1000F40F4CD
:1025800080720A6011D00868B9F1010F11D040F0D3
:1025900080700860D8F80000444640F08050C8F8C9
:1025A0000000FEF7B7F905460DE0086840F480002A
:1025B000EFE740F40000ECE7FEF7ACF9401B02281F
:1025C00001D903208DE720688000F5D5504688E7C3
:1025D0002844025810B5026840F26F33516994697B
:1025E00044F0080494610268946944F01004946112
:1025F0000268146824F001041460026814699C43A2
:1026000014610268936823F44043936090F881203A
:10261000042A0CD08A060AD5D0F8842042F0800221
:10262000C0F884200268936943F02003936190F816
:102630008120032A0CD04A060AD5D0F8842042F023
:102640000402C0F884200268936943F04003936158
:102650008A050AD5D0F8842042F00102C0F884200F
:102660000268936943F400739361C9050AD5D0F8F1
:10267000841041F00801C0F8841001688A6942F4AE
:1026800080728A610021A0F86210A0F86A1010BD63
:102690002DE9F0411C4616460D460746DDF8188028
:1026A0000AE000BFFEF736F9A0EB0800A04202D313
:1026B000601C01D00BE054B13868406935EA000075
:1026C00007D00020B042EDD00020BDE8F08103200B
:1026D000FBE70120F6E77047FEF722B970B59CB022
:1026E0004C216846FDF762FE202113A8FDF75EFE2F
:1026F0000220FEF7F9F91D48016821F4404101600C
:102700000168002401F440411B9101688904FCD553
:102710004025022000900121CDE90315CDE90904EF
:10272000CDE90D101E230F900C261294042268464A
:10273000CDE91064CDE90B23FFF768F808B172B654
:10274000FEE708221A95CDE91625D30113AA3F20EA
:102750000321CDE9185382E8130013A8FEF78CFE7D
:10276000002801D072B6FEE71CB070BD18480258B0
:102770002748F0B5274A016841F4700101601068EC
:1027800000F00F00072804D2106820F00F00C01DD1
:10279000106021490020204C10340B681F4D43F07D
:1027A00001030B6020600B682B400B60136803F083
:1027B0000F03072B04D9136823F00F03DB1D1360ED
:1027C000154C174A1834174B261D371D2060124C24
:1027D000154D28343060261D3860371D23603B1DA1
:1027E00035601C1D3A60251D2E1D1860331D2260AA
:1027F0002860326018600A6843F2D204064B0B4D21
:1028000022F4802260330A6018602C60F0BD000062
:1028100088ED00E000200052004402587FEDF6EA07
:1028200080020101000202020000FF01004000528C
:10283000FEE7090700284FEA116104DB00F1E02000
:1028400080F80014704700F00F0000F1E02080F8DD
:10285000141D70472DE9F0410024FDF713FE802080
:10286000FDF726FF5520FDF723FF5520FDF720FF3C
:10287000FDF700FE9620FDF72CFEFDF703FE8020FD
:10288000FDF716FF5520FDF713FF5520FDF710FF4C
:10289000FDF7F0FD9620FDF71CFEFDF7F3FDB621D8
:1028A0007E20FDF715FFFDF7E5FD5020FDF705FE45
:1028B000FDF7E8FD8020FDF7FBFE5520FDF7F8FE53
:1028C0005520FDF7F5FEFDF7D5FD9620FDF701FE3D
:1028D000FDF7D8FD8020FDF7EBFE5520FDF7E8FE63
:1028E0005520FDF7E5FE0546FDF7C4FD9620FDF7F2
:1028F000F0FD1E2D02D0FF20BDE8F081184D00BF75
:10290000FDF7C0FD04EB44067719A85D7978FDF763
:10291000DFFEFDF7AFFD9620FDF7DBFDFDF7B2FD15
:10292000A85D40F08000FDF7C3FE5520FDF7C0FE16
:102930005520FDF7BDFE0646FDF79CFD9620FDF7F0
:10294000C8FD7878B04204D004EB44002844807875
:10295000D2E7641CE4B2062CD2D30020CCE70000FE
:1029600020000024F8B5002004468DF80000FDF793
:102970009BFD00206946FDF78FFEFDF78DFD96203B
:10298000FDF7A7FDFDF790FD00206946FDF784FEE9
:10299000FDF782FD9620FDF79CFDFDF785FDB62134
:1029A0001420FDF795FEFDF777FD5020FDF785FD1E
:1029B000FDF77AFD00206946FDF76EFEFDF76CFD20
:1029C0009620FDF786FDFDF76FFD00206946FDF7B7
:1029D00063FEFDF761FD9620FDF77BFD9DF800008D
:1029E0000F2801D0FF20F8BD154D00BFFDF75CFD9D
:1029F00004EB44067719A85D7978FDF769FEFDF7C9
:102A00004BFD9620FDF765FDFDF74EFDA85D69467F
:102A1000FDF742FEFDF740FD9620FDF75AFD787860
:102A20009DF80010884204D004EB440028448078CC
:102A3000F8BD641CE4B2062CD8D30020F8BD000019
:102A4000320000241FB500240094019402940394E2
:102A5000FDF7EAFF01208DF80C001F218DF808100A
:102A600087228DF809208DF80D008DF8000068464A
:102A70008DF80A408DF80E408DF8014001948DF8D4
:102A80000B408DF80F40FDF7A1FF0420FDF7DAFFA2
:102A9000FDF74EFFFFF722FEFFF710FCFFF74CFC9F
:102AA000FDF72FFD034C0449A1F10C002268FDF74E
:102AB00035FDF8E700000024500000244FF040707E
:102AC000E1EE100A70470000000001020304010259
:102AD0000304060708090000082B00080000002472
:102AE0004400000008030008082B00080000002034
:102AF00000040000240300084C2B000844000024BC
:102B0000040300002403000800000000010000008E
:102B100010000000000000000090D0030090D003DF
:102B2000E7416B3A58A08B3A7D04017C000240AB30
:102B3000034100055308065804070F0008108209D6
:0C2B400011000A15800B16000C18010D86
:04000005080002CD20
:00000001FF
