:020000040800F2
:10000000980B00246D0300080F260008CD2400087B
:100010000D260008630500082531000800000000D7
:100020000000000000000000000000005729000848
:100030006505000800000000112600085929000885
:100040008703000887030008870300088703000868
:100050008703000887030008870300088703000858
:100060008703000887030008870300088703000848
:100070008703000887030008870300088703000838
:100080008703000887030008870300088703000828
:100090008703000887030008870300088703000818
:1000A0008703000887030008870300088703000808
:1000B00087030008870300088703000887030008F8
:1000C00087030008870300088703000887030008E8
:1000D00087030008870300088703000887030008D8
:1000E000870300088703000800000000870300085A
:1000F00087030008870300088703000887030008B8
:1001000087030008870300088703000887030008A7
:100110008703000887030008870300088703000897
:100120008703000887030008870300088703000887
:100130008703000887030008870300088703000877
:1001400000000000000000000000000000000000AF
:100150008703000887030008870300088703000857
:100160008703000887030008870300088703000847
:1001700087030008870300088703000800000000C9
:100180008703000887030008870300088703000827
:100190008703000887030008870300088703000817
:1001A0008703000887030008870300080000000099
:1001B00087030008870300088703000887030008F7
:1001C000870300088703000800000000000000000B
:1001D000000000000000000087030008000000008D
:1001E000000000000000000000000000000000000F
:1001F00000000000000000008703000887030008DB
:100200008703000887030008000000008703000838
:100210008703000887030008870300088703000896
:1002200087030008000000008703000800000000AA
:100230008703000887030008000000008703000808
:100240008703000887030008870300088703000866
:100250008703000887030008870300088703000856
:100260008703000887030008870300088703000846
:1002700087030008870300088703000800000000C8
:100280008703000887030008870300088703000826
:10029000000000008703000887030008000000003A
:1002A0000000000087030008870300088703000898
:1002B00087030008870300088703000887030008F6
:1002C00087030008870300088703000800F002F88E
:1002D00000F03CF80AA090E8000C82448344AAF1A4
:1002E0000107DA4501D100F031F8AFF2090EBAE8A2
:1002F0000F0013F0010F18BFFB1A43F0010318475A
:10030000582F0000782F0000103A24BF78C878C119
:10031000FAD8520724BF30C830C144BF04680C600B
:10032000704700000023002400250026103A28BF53
:1003300078C1FBD8520728BF30C148BF0B60704757
:100340001FB502F067FF1FBD10B510BD00F0CFF85C
:100350001146FFF7F5FF02F047FF00F0EDF803B498
:10036000FFF7F2FF03BC00F0F5F8000009488047F2
:1003700009480047FEE7FEE7FEE7FEE7FEE7FEE787
:10038000FEE7FEE7FEE7FEE704480549054A064B9F
:1003900070470000F1290008CD02000898010024F0
:1003A000980B0024980300249803002453EA020CBD
:1003B00000F069802DE9F04B4FF00006002B1FBFC5
:1003C000B3FA83F503FA05F424FA05F65E4012BF8A
:1003D0001643B2FA82F502FA05F4C5F120051EBFF4
:1003E00022FA05FC44EA0C04203556EA044C4FEA94
:1003F000144418BF641C4FF000084FF000099042ED
:1004000071EB030C39D3002919BFB1FA81F701FA56
:1004100007F6B0FA80F700FA07F6C7F120071EBF0B
:1004200020FA07FC46EA0C062037B6FBF4FCA7EBE3
:100430000507103F07F01F0BCBF120060CFA0BFB52
:100440002CFA06F644BFB3460026202FA4BF5E4612
:100450004FF0000B5BEA060C08BF4FF0010B19EBE5
:100460000B09ABFB027C48EB0608C01B06FB02CC69
:100470000BFB03CC71EB0C01C1E70B460246414676
:100480004846BDE8F08B13B54FF000004FF0000177
:10049000AFF30080BDE81C4070474FF0000200B58C
:1004A000134694469646203922BFA0E80C50A0E897
:1004B0000C50B1F12001BFF4F7AF090728BFA0E845
:1004C0000C5048BF0CC05DF804EB890028BF40F811
:1004D000042B08BF704748BF20F8022B11F0804F53
:1004E00018BF00F8012B704770477047704775467A
:1004F00000F02CF8AE4605006946534620F0070090
:10050000854618B020B5FFF73FFFBDE820404FF00B
:1005100000064FF000074FF000084FF0000B21F0ED
:100520000701AC46ACE8C009ACE8C009ACE8C009BA
:10053000ACE8C0098D46704710B50446AFF30080A3
:100540002046BDE81040FFF70ABF00000048704792
:100550003401002401491820ABBEFEE7260002004A
:100560007047FEE7704772B6FEE7000070B50446BC
:1005700000F022F90546601C02D0044800780444CB
:1005800000F01AF9401BA042FAD370BD0400002409
:100590002DE9F84F03247A4D00234FF001094FF065
:1005A000B04B4FF00F0AE4E009FA03F6324078D07E
:1005B0000F7907F00307012F01D0022F1AD18768A6
:1005C0004FEA430ED1F80CC004FA0EF827EA0807E8
:1005D0000CFA0EFC4CEA070CC0F808C0476891F80A
:1005E00004C0B743CCF3001C0CFA03FC4CEA070C24
:1005F000C0F804C00E79F643B6070BD0C6684FEAC0
:1006000043088F6804FA08FC26EA0C0607FA08F784
:100610003743C7600E7906F00306022E12D1DE08BA
:100620000F694FEA437C00EB8606B646366A4FEA0E
:10063000DC6C0AFA0CF807FA0CF726EA08063743CE
:10064000CEF820700F7906684FEA430807F00307D9
:1006500004FA08FC07FA08F726EA0C063743076095
:100660004E6816F4403F1CD0464E376847F00207EC
:10067000376036689F0706F00206009623F00306EF
:1006800006F1B046B6463F0FD6F80864DFF8F880AA
:100690000AFA07FC404526EA0C0603D14FF0000C8D
:1006A0003AE065E0DFF8E4C0604502D14FF0010CAC
:1006B00032E0DFF8DCC0604502D14FF0020C2BE0E5
:1006C000DFF8D0C0604502D14FF0030C24E0DFF822
:1006D000C8C0604502D14FF0040C1DE0DFF8BCC07B
:1006E000604502D14FF0050C16E0DFF8B4C060455C
:1006F00002D14FF0060C0FE0DFF8A8C0604502D130
:100700004FF0070C08E0DFF8A0C0604502D14FF0C1
:10071000090C01E04FF00A0C0CFA07FC4CEA060C3D
:10072000CEF808C44F68DBF80060FF0226EA020634
:1007300000D516435F46CBF80060D1F804C0DBF863
:1007400004605FEA8C2C26EA020600D516437E6020
:100750006E684F6826EA0206BF0300D516436E6036
:100760002E684F6826EA0206FF0300D516432E6066
:100770005B1C0A6832FA03F67FF416AFBDE8F88F07
:1007800080000058F4440258000002580004025847
:1007900000080258000C02580010025800140258B9
:1007A00000180258001C0258002402580AB1816146
:1007B00070470904FBE700000148806870470000AB
:1007C0000400002402488168027811448160704767
:1007D00004000024032010B500F078F801F01AF8A6
:1007E0000F4A104914681368C4F3032203F00F037F
:1007F0008A5CC95C02F01F0201F01F01D0400A4A66
:1008000020FA01F11160094908600F2000F010F88A
:1008100008B1012010BD00F02BF8002010BD000031
:100820001844025846320008140000241000002426
:1008300070B50D4D04462878A0B14FF47A71B1FB24
:10084000F0F00A490968B1FBF0F001F047FD48B942
:10085000102C07D200222146501E00F017F800206D
:100860006C6070BD012070BD0400002410000024E5
:10087000054808B5016841F002010160006800F018
:100880000200009008BD0000F44402580E4BF0B482
:100890001B680D46C3F30223C3F10706042E00D9DB
:1008A0000426191D072901D2002300E0DB1E0124C4
:1008B00004FA06F19C40491E2940641E99401440E8
:1008C0002143F0BC02F07EBC0CED00E0064900F0D4
:1008D000070210B54FF6FF040868044B204040EAB9
:1008E00002201843086010BD0CED00E00000FA057E
:1008F000134970B50A68D243520705D5096801F05B
:100900000701814213D118E00A6822F0070202436E
:100910000A60FFF751FF0A4D4FF47A760446083D0E
:1009200007E000BFFFF748FF001BB04201D90120DC
:1009300070BD2868C0438004F4D4002070BD00005E
:100940000C48025810B500F01FFF05490968054A18
:10095000C1F30211515C01F01F01C84010BD00003D
:100960002044025846320008494930B5484C0B1D16
:100970000A68143409681D68246802F00303C5F38B
:100980000012C1F30531C4F3CC04002914FB02F2B8
:1009900000EE102AF8EE400A75D03F4A9FED3D1A4E
:1009A000B7EE000A6BB1DFED3D1A012B01D0022B2F
:1009B00064D002EE101A1168F8EE422A81EEA22AE3
:1009C00021E0334C283C23689B0612D5344B246825
:1009D00001EE901A1168C4F3C104F8EE612AE340F5
:1009E00001EE903AC1F30801F8EE611A81EEA22AF5
:1009F0000BE001EE901ADFED2B2A00BFF8EE611A32
:100A0000116882EEA12AC1F3080101EE901A116863
:100A1000F8EE611A40EE811A71EE800A62EE200A49
:100A2000C1F3462101EE101AB8EE411A31EE001A58
:100A3000C0EE811ABCEEE11A80ED001A1168C1F314
:100A4000064101EE101AB8EE411A31EE001AC0EE5E
:100A5000811ABCEEE11A80ED011A1168C1F306613A
:100A600001EE101AB8EE411A31EE000A80EE801A3B
:100A7000BCEEC10A80ED020A30BD04E001EE901A1E
:100A8000DFED092ABAE70021016041608160F3E7E8
:100A90002844025800000039384402580024744A9F
:100AA0000090D0030024744C001BB74B494930B56B
:100AB000484C0B1D0A681C3409681D68246802F044
:100AC0000303C5F30022C1F30551C4F3CC0400298C
:100AD00014FB02F200EE102AF8EE400A75D03F4AED
:100AE0009FED3D1AB7EE000A6BB1DFED3D1A012B09
:100AF00001D0022B64D002EE101A1168F8EE422ADF
:100B000081EEA22A21E0334C283C23689B0612D5B3
:100B1000344B246801EE901A1168C4F3C104F8EE56
:100B2000612AE34001EE903AC1F30801F8EE611A40
:100B300081EEA22A0BE001EE901ADFED2B2A00BF16
:100B4000F8EE611A116882EEA12AC1F3080101EEE4
:100B5000901A1168F8EE611A40EE811A71EE800A5F
:100B600062EE200AC1F3462101EE101AB8EE411AD6
:100B700031EE001AC0EE811ABCEEE11A80ED001AC7
:100B80001168C1F3064101EE101AB8EE411A31EEB8
:100B9000001AC0EE811ABCEEE11A80ED011A11684C
:100BA000C1F3066101EE101AB8EE411A31EE000AE7
:100BB00080EE801ABCEEC10A80ED020A30BD04E06E
:100BC00001EE901ADFED092ABAE7002101604160C9
:100BD0008160F3E72844025800000039404402587D
:100BE0000024744A0090D0030024744C001BB74BBF
:100BF0002DE9FE4F0546DFF800A450F8081B00243D
:100C0000FD4FC943019005F1280026460AF1240A48
:100C1000009008011DD4686E50B1B0F5801F0CD053
:100C2000B0F5001F0ED0B0F5401F1ED001240FE01C
:100C3000386840F40030386017E00198022101F074
:100C4000E9FC03E00098022101F074FD04000CD0DF
:100C500026462888C043C00523D4A86D05281ED287
:100C6000DFE800F00C11161B1B006A6EDAF80010AA
:100C700021F440111143CAF80010EAE7386840F443
:100C80000030386009E00198002101F0C3FC03E066
:100C90000098002101F04EFD0446C4B100E001249B
:100CA00026462888DFF85083C04308F12C08400509
:100CB0002FD4D5F8A400B0F5C00F28D010DCB8B1FF
:100CC000B0F5001F19D0B0F5800F0FD11AE0AA6D52
:100CD000DAF8001021F007011143CAF80010E0E72C
:100CE000B0F5000F13D0B0F5200F10D001240FE0A5
:100CF000386840F40030386009E00198002101F0C4
:100D000089FC03E00098002101F014FD044694B131
:100D100026462888C043000530D4D5F8A800B0F195
:100D2000407F29D011DCC0B1B0F1807F1AD0B0F182
:100D3000007F10D11BE0D5F8A420D8F8001021F4D2
:100D400060011143C8F80010E3E7B0F1806F13D0E1
:100D5000B0F1A06F10D001240FE0386840F40030EB
:100D6000386009E00198002101F054FC03E000988C
:100D7000002101F0DFFC044694B126462868DFF824
:100D800078B2C0430BF1200B80011FD4E86CD8B1BE
:100D900010280FD0202812D0302815D0012414E0BC
:100DA000D5F8A820D8F8001021F0E0611143C8F868
:100DB0000010E3E7386840F40030386004E0019840
:100DC000022101F027FC044674B126462888C0435E
:100DD000C0042BD4E86DB0F5005F20D00DDCA0B1CD
:100DE000B0F5805F0FD115E0EA6CDBF8001021F060
:100DF00030011143CBF80010E8E7B0F5405F13D0A5
:100E0000B0F5804F10D001240FE0386840F4003076
:100E1000386009E00198002101F0FCFB03E0009834
:100E2000002101F087FC04468CB126462888C04387
:100E3000800429D4286EB0F5403F23D010DC08B3DD
:100E4000B0F5803F14D0B0F5003F0FD115E0EA6D4A
:100E5000DAF8001021F4E0411143CAF80010E5E788
:100E6000B0F5802F0ED0B0F5A02F0BD001240AE0F2
:100E70000198012101F0CEFB03E00098012101F06F
:100E800059FC044694B126462888C04340042AD41D
:100E9000D5F8AC00B0F1405F23D010DC08B3B0F15E
:100EA000805F14D0B0F1005F0FD115E02A6EDAF840
:100EB000001021F4E0211143CAF80010E4E7B0F17A
:100EC000804F0ED0B0F1A04F0BD001240AE0019862
:100ED000012101F09FFB03E00098012101F02AFCB1
:100EE000044674B126462888C04300041FD4E86E27
:100EF000D8B1B0F1805F0ED0B0F1005F10D0012406
:100F000014E0D5F8AC20D8F8001021F0E0411143EE
:100F1000C8F80010E7E7386840F40030386004E0B3
:100F20000198012101F076FB044674B12646286839
:100F3000C043C0011ED4A86CD0B101280ED0022835
:100F400011D0032814D0012413E0EA6EDAF800105F
:100F500021F040511143CAF80010E8E7386840F426
:100F60000030386004E00198022101F053FB044690
:100F70006CB126462868C043400255D41F4801681A
:100F800041F480710160FFF717FC81460EE0AA6C06
:100F9000DBF8001021F003011143CBF80010E9E762
:100FA000FFF70AFCA0EB090064283BD8134800684F
:100FB000C005F5D5BCBBDFF84090B5F8B01009F11D
:100FC0004409D9F8000001F4407100F440708842EF
:100FD00011D0D9F80010D9F8002021F4407142F462
:100FE0008032C9F80020D9F8002022F48032C9F8F4
:100FF0000020C9F8001003E02C44025800480258B1
:10100000D5F8B000B0F5807F19D1FFF7D5FB02907D
:1010100011E000BFFFF7D0FB0299411A41F288307E
:10102000814208D9032426462878DFF81494C04367
:10103000C00721D03CE0D9F800008007EAD5D5F8F8
:10104000B010C1F301200328FE480DD0016821F43F
:101050007C510160B5F8B020D9F80010C2F30B0242
:101060001143C9F80010DFE7F74A036802EA1112DA
:1010700023F47C511143ECE7A86F182816D005DC47
:10108000A0B1082808D0102804D10AE020280DD0EB
:1010900028280BD001240AE00198012101F0BAFAB6
:1010A00003E00098012101F045FB044664B12646A7
:1010B0002878C04380071ED4686F062819D2DFE85D
:1010C00000F0160C11161616AA6FD9F8001021F0B0
:1010D00038011143C9F80010EAE70198012101F035
:1010E00099FA03E00098012101F024FB04467CB149
:1010F00000E0012426462878C04340071FD4D5F8D5
:101100009000062819D2DFE800F0160C111616160A
:101110006A6FD9F8001021F007011143C9F80010D7
:10112000E9E70198012101F075FA03E00098012137
:1011300001F000FB0446A4B100E001242646287813
:10114000C04380062BD4D5F88C00B0F1405F24D08A
:1011500011DC10B3B0F1805F15D0B0F1005F10D199
:1011600016E0D5F89020D8F8001021F007011143BF
:10117000C8F80010E3E7B0F1804F0ED0B0F1A04FF7
:101180000BD001240AE00198002101F043FA03E0AA
:101190000098022101F0CEFA044694B12646287840
:1011A000C04340062BD4D5F89800B0F5406F24D04A
:1011B00011DC10B3B0F5806F15D0B0F5006F10D111
:1011C00016E0D5F88C20D9F8001021F0E041114349
:1011D000C9F80010E3E7B0F5805F0ED0B0F5A05F6E
:1011E0000BD001240AE00198002101F013FA03E07A
:1011F0000098022101F09EFA044694B12646287810
:10120000C04300062BD4D5F89C00B0F5C04F24D0C5
:1012100011DC10B3B0F5005F15D0B0F5804F10D1E0
:1012200016E0D5F89820D8F8001021F4E0511143C9
:10123000C8F80010E3E7B0F5004F0ED0B0F5204F2E
:101240000BD001240AE00198002101F0E3F903E04A
:101250000098022101F06EFA044654B1264628781F
:10126000C04300071ED4D5F88000B0F5805F0AD0D7
:101270000FE0D5F89C20D8F8001021F4604111430C
:10128000C8F80010EBE70098022101F053FA00B112
:101290000126D5F88020D9F8001021F440511143DF
:1012A000C9F800102878C043C00613D4D5F89400BC
:1012B000B0F5807F05D10098022101F03BFA00B122
:1012C0000126D5F89420D8F8001021F4407111437C
:1012D000C8F800102868C043000316D4D5F8A00051
:1012E00038B1B0F5803F09D0B0F5003F0BD00124F4
:1012F0000AE00198002101F08DF903E00098022135
:1013000001F018FA04468CB126462868C043400311
:1013100022D4D5F88400B0F5801F11D0B0F5001F9D
:1013200013D0B0F5401F15D0012414E0D5F8A0204B
:10133000D8F8001021F440311143C8F80010E4E758
:10134000386840F40030386004E00098012101F072
:10135000F1F904465CB126462868C043C0031CD49A
:10136000286D70B1B0F5803F10D0012414E0D5F89D
:101370008420D9F8001021F440111143C9F800105D
:10138000EAE7386840F40030386004E00198022150
:1013900001F040F90446DCB126462868C0438000CD
:1013A00005D40098022101F0C5F900B10126286892
:1013B000C04380031BD4E86FB8B1B0F5807F10D074
:1013C000B0F5007F11D0B0F5407F0ED001240DE0C4
:1013D0002A6DDBF8001021F480311143CBF80010A6
:1013E000DBE7386840F4003038607CB32646286874
:1013F000C043C00207D42A6FDAF8001021F0004180
:101400001143CAF800102868C043800207D4AA6EAE
:10141000DAF8001021F080711143CAF80010286832
:10142000C043400009D40748016821F4004101602D
:101430000168D5F8B420114301602868C04306E074
:101440005444025810440258CFFFFF001DE007D457
:101450006A6DDBF8001021F040511143CBF8001009
:101460002868C043000208D4D5F88820D9F80010B5
:1014700021F440011143C9F8001028790024C04329
:1014800000F00100204309D00EE0EA6FD9F8001007
:1014900021F440711143C9F80010A8E70198002118
:1014A00001F0B8F800B106462879C04300F0020008
:1014B000204305D10198012101F0ACF800B10646A6
:1014C0002879C04300F00400204305D1019802218F
:1014D00001F0A0F800B106462879C04300F00800EA
:1014E000204305D10098002101F024F900B10646FF
:1014F0002879C04300F01000204305D10098012155
:1015000001F018F900B106462879C04300F0200028
:10151000044304D10098022101F00CF900B916B17E
:101520000120BDE8FE8F0020FBE700002DE9F05F01
:1015300004000F467ED0DFF83882D8F8000000F0B3
:101540000F00B8420CD2D8F8001021F00F01394337
:10155000C8F80010D8F8000000F00F00B84269D1B8
:101560002078844D40070AD52069296801F0700170
:10157000884204D9296821F070010143296020784C
:101580007C4E361D00070AD56069316801F0700194
:10159000884204D9316821F070010143316020781C
:1015A000C0060AD5A069316801F4E061884204D917
:1015B000316821F4E061014331602078DFF8B4B193
:1015C00080060BF1080B0CD5E1695846DBF80020CA
:1015D00002F07002914204D9026822F070020A43BC
:1015E0000260207880070AD5E068296801F00F01C1
:1015F000884204D9296821F00F010143296020782D
:10160000C0073ED05B49A2682868183920F4706092
:10161000104328606068022818D0032819D0096890
:10162000012819D0490700294ADADFF848A1AAF1B0
:10163000080A00E044E0DAF8002022F00702024342
:10164000CAF80020FFF7B8F8814612E0096889035C
:10165000E9E709688901E6E7C905E4E7FFF7ACF8BF
:10166000A0EB090141F28830814202D90320BDE894
:10167000F09F6168DAF8000000F03800B0EBC10FAD
:10168000ECD1207880070AD5E068296801F00F01C5
:10169000884204D2296821F00F0101432960D8F85B
:1016A0000010404601F00F01B9420BD9016821F04A
:1016B0000F0139430160006800F00F00B84201D00B
:1016C0000120D4E7207840070AD52069296801F075
:1016D0007001884204D2296821F070010143296019
:1016E000207800070AD56069316801F070018842EE
:1016F00004D2316821F07001014331602078C006C6
:101700000AD5A069316801F4E061884204D23168E9
:1017100021F4E06101433160207880060CD5E16955
:101720005846DBF8002002F07002914204D20268B1
:1017300022F070020A43026000F06CF80E492A6839
:101740002B68C2F3032203F00F038A5CC95C02F02A
:101750001F0201F01F01D040084A20FA01F1116078
:101760000749086007480068BDE8F05FFFF760B808
:101770000020005218440258463200081400002489
:10178000100000240800002430B500F043F80B4A94
:101790000B490C4B15681468C5F3032204F00F04C1
:1017A0008A5C095D02F01F0201F01F01D040064A69
:1017B00020FA01F119601060084630BD1844025843
:1017C00046320008140000241000002400B5FFF782
:1017D000DBFF05490968054AC1F30211515C01F0BC
:1017E0001F01C84000BD00001C44025846320008DA
:1017F00000B5FFF7C9FF05490968054AC1F3022191
:10180000515C01F01F01C84000BD00001C4402589B
:1018100046320008454970B545480968434B103BBE
:1018200011F0380208D00111082A03D0102A0BD079
:10183000182A0BD0084670BD19688906FBD51968AF
:10184000C1F3C101C84070BD3A4870BD3749374D3A
:1018500018310C1D24350A68096826682D6802F0C5
:10186000030406F00102C1F30511C5F3CC0515FB15
:1018700002F200EE102AB8EE400AE9B32F4ADFED7B
:101880002E0AB7EE001A6CB1DFED2D1A012C01D033
:10189000022C43D002EE101A1068F8EE422A81EEB4
:1018A000A22A1EE01C68A40611D51B6801EE901A3E
:1018B0001168C3F3C103F8EE612AD84001EE900A23
:1018C000C1F30800F8EE611A81EEA22A0BE001EEE6
:1018D000901ADFED1C2A00BFF8EE611A106882EE44
:1018E000A12AC0F3080001EE900AF8EE611A40EE5A
:1018F000201A31EE810A00E015E022EE000A10689D
:10190000C0F34620401C00EE900AF8EE600A80EE1C
:10191000201ABCEEC10A10EE100A70BD01EE901A3A
:10192000DFED092AD8E7002070BD000010440258FE
:101930000090D00300366E01000000393044025898
:101940000024744A0024744C001BB74B2DE9F05F4F
:1019500004007DD0FF4F2078FE4D1837DFF8F48368
:10196000103DC00748D0D8F80000396800F03800B2
:10197000102815D0182803D101F0030002280FD039
:101980006068B0F5803F12D010B1B0F5A02F18D02C
:10199000286820F480302860286820F4802009E03E
:1019A0002868800328D560680028D2D024E0286801
:1019B00040F480302860606888B1FEF7FDFE06467E
:1019C00009E0286840F480202860F0E7FEF7F4FE84
:1019D000801B64287ED828688003F7D50CE0FEF7CA
:1019E000EBFE064605E000BFFEF7E6FE801B64281E
:1019F000F0D828688003F7D42078800756D5D8F827
:101A00000000DFF85093396810F03800A9F10C0994
:101A10000ED0182801D188070AD0E068A8B3296839
:101A200021F0190101432960FEF7C6FE064628E0B1
:101A30002868400702D5E06800288AD0E168286855
:101A400020F0190008432860FEF7B6FE064606E0BF
:101A5000D2E000BFFEF7B0FE801B0228BAD828688B
:101A60004007F7D5217CD9F8002022F0FE4242EA57
:101A70000161C9F8001019E0FEF79EFE801B0228E4
:101A8000A8D828684007F7D5ECE7FFE7286820F0DA
:101A900001002860FEF790FE064604E0FEF78CFE8B
:101AA000801B022896D828684007F7D42078C00603
:101AB00046D5D8F80000DFF89C92396800F038006D
:101AC000A9F10409082812D0182805D101F0030053
:101AD000012800E0CEE00AD0E0690028286820D084
:101AE00040F080002860FEF767FE064615E0286893
:101AF000C00502D5E06980287ED194F82010D9F87D
:101B0000002022F07C5242EA0161C9F8001017E07F
:101B1000FEF752FE801B0228A0D82868C005F7D522
:101B2000EBE720F080002860FEF746FE064604E062
:101B3000FEF742FE801B022890D82868C005F7D423
:101B40002078000729D583486169643000298146DF
:101B5000016811D041F001010160FEF72DFE06463B
:101B600005E000BFFEF728FE801B022888D8D9F8C0
:101B700000008007F6D510E021F001010160FEF7BA
:101B80001BFE064605E000BFFEF716FE801B02287E
:101B900070D8D9F800008007F6D42078800623D5C5
:101BA000A0690028286810D040F480502860FEF713
:101BB00003FE064605E000BFFEF7FEFD801B02287F
:101BC00058D828688004F7D50EE020F480502860AB
:101BD000FEF7F2FD064604E0FEF7EEFD801B02284C
:101BE00048D828688004F7D42078400751D5DFF81A
:101BF0006891D9F8001000E015E141F48071C9F84E
:101C00000010FEF7D9FD064605E000BFFEF7D4FD43
:101C1000801B64282ED8D9F80000C005F6D54D4E9B
:101C2000A068603601280AD008B1052813D03068B2
:101C300020F001003060306820F0040002E03068DD
:101C400040F001003060A06841F2883A98B1FEF798
:101C5000B3FD81460AE0306840F004003060EEE7F2
:101C6000FEF7AAFDA0EB0901514503D830688007B3
:101C7000F6D50EE072E0FEF79FFD814606E000BF5C
:101C8000FEF79AFDA0EB0901514567D8306880073F
:101C9000F6D4606A00287CD0DFF8B8A0D8F800102D
:101CA0000AF1200A4FF6F87B0AF10408C1F3C201D9
:101CB0000329AAF104096DD00228286820F0807059
:101CC000286003D0FEF778FD044681E0FEF774FD3E
:101CD000064604E0FEF770FD801B022875D82868D0
:101CE0008001F7D4E26A40F2F331386854F8283FB3
:101CF000884340EA021018433860217B4FF4FE0C01
:101D000022894FF0FE47208A4902267D521E401E3E
:101D1000A1F5007189B2C2F308021143761E0CEAE4
:101D200000400143484607EA06621143CAF8001022
:101D3000D9F8001021F00101C9F80010D8F80030DE
:101D4000266A23EA0B0343EAC601C8F80010D9F853
:101D5000001004E0104402580048025835E0A2691F
:101D600021F00C011143C9F800100168E26921F06B
:101D7000020111430160016841F480310160016892
:101D800041F400310160016841F480210160016883
:101D900001E06CE020E041F001010160286840F0C2
:101DA00080702860FEF708FD044604E0FEF704FD9D
:101DB000001B022809D828688001F7D557E000BF2A
:101DC000FEF7FAFC001B022802D90320BDE8F09FB1
:101DD00028688001F4D44AE039680128DAF8000064
:101DE00021D0A26A01F0030393421CD1E26AC1F33D
:101DF00005118A4217D1216BC0F30802491E8A429D
:101E000011D1616BC0F34622491E91420BD1A16BE7
:101E1000C0F30642491E914205D1E16BC0F3066052
:101E2000491E814201D00120D0E7A16C4646D8F876
:101E30000000C0F3CC00814219D0D9F800004D4613
:101E400020F00100C9F80000FEF7B6FC4FEA0007D9
:101E5000FEF7B2FCB842FBD0A26C306820EA0B005F
:101E600040EAC2003060286840F00100286000208D
:101E7000ACE700002DE9F047040029D0594A4FF0A3
:101E800000092068584B594D9042C4F8289006D05C
:101E9000984204D0A84202D0E1680F2918D8E1681E
:101EA0004FF0010AE76B0831C9080AEB5716714376
:101EB000904205D0984203D0A84201D0082907D803
:101EC000904203D0984201D0A84204D1102902D9EF
:101ED0000120BDE8F08794F8810020B9204684F8FD
:101EE000809000F085F8022084F881002068016865
:101EF00021F0010101602068A1698268B1F1806F61
:101F000002F4F81110D16268B2F5800F01D01AB155
:101F10000AE0A26B22B107E0A26BB2F1805F03D1AD
:101F2000026842F4805202606068400209D5E068AD
:101F3000072806D32068236D026822F480721A43B2
:101F400003E02068026822F480720260A66AE069F9
:101F5000E26B25683043E3680A4310431843A860E6
:101F6000D4E90D02D4E90581636A25691843D4F8E0
:101F700020C00A43266810432843A56DD4E90172A6
:101F8000D4E9123140EA080040EA0C003843084323
:101F9000104318432843F060606868B9206881687E
:101FA00021F4C05141F4006181602068816821F40E
:101FB000C06141F4806181602068016D21F0010100
:101FC00001656068400206D52068626DC16821F035
:101FD00000411143C160C4F8849084F881A00020BE
:101FE00077E700000030014000380040003C00402E
:101FF00010B5B4B0044614212EA8FEF74EFAB8214D
:102000006846FEF74AFA1A49206888422DD1002016
:102010004FF480414FF0A0422B92CDE9001068466A
:10202000FEF7E6FD08B1FEF79EFA1248016841F09E
:1020300020010160006800F0200033900D48143842
:10204000016841F00101016000680DF1B80C022146
:1020500000F001003390A0200022032308248CE824
:102060001F0005482EA9FEF793FA34B010BD0000FA
:1020700000140058F4440258000002582DE9F84FAB
:102080008A4690F8801099461746012904464FF079
:10209000000B0DD04FF0010884F88080FEF78CFB18
:1020A000064694F881000025012804D0022034E07F
:1020B0000220BDE8F88FBAF1000F2DD067B3A168F8
:1020C0000320C4F85CA0A4F8607084F88100C4F810
:1020D0008450A4F862706566A4F86850A4F86A5049
:1020E000B1F5C02F65672567206819D0C16821F454
:1020F000C02141F40031C160206841686FF30F01D5
:10210000394341602068016841F001010160606865
:10211000B0F5800F09D00DE0012084F88050C8E7A9
:10212000016841F400610160E6E72068016841F45C
:1021300000710160E0680F281CD82EE0206841691A
:1021400089070BD5E16D09680162E06D001DE0654E
:10215000B4F86200401EA4F862000BE0FEF72CFB0E
:10216000811B494503D3B9F1FF3F03D007E0B9F123
:10217000000F04D0B4F862000028DFD183E02046CD
:1021800000F068FBD4F8841084F8805041F480712A
:10219000C4F8841084F881809CE007282CD86EE075
:1021A0002068416989071BD5B4F8621001290BD951
:1021B000E16B49B1E16D09680162E06D001DE06508
:1021C000B4F86200801E08E0E16D09880184E06DCA
:1021D000801CE065B4F86200401EA4F862000BE0C9
:1021E000FEF7EAFA811B494503D3B9F1FF3F03D05B
:1021F000C5E7B9F1000FC2D0B4F862000028CFD112
:1022000041E02068416989072DD5B4F8621003299F
:102210000CD9E16B402909D9E16D09680162E06DD3
:10222000001DE065B4F86200001F19E0B4F8621008
:1022300001290BD9E16B49B1E16D09880184E06D99
:10224000801CE065B4F86200801E09E0E16D097849
:1022500080F82010E06D401CE065B4F86200401E7C
:10226000A4F862000BE0FEF7A7FA811B494503D3EF
:10227000B9F1FF3F03D020E0B9F1000F1DD0B4F851
:1022800062000028BDD100224B460821204600965E
:1022900000F03EFB28B1D4F8840040F02000C4F8E0
:1022A0008400204600F0D6FA84F88180D4F88400B7
:1022B00084F8805080B10120FBE6204600F0CAFA85
:1022C000D4F8840084F8805040F48070C4F884000E
:1022D00084F881800320ECE65846EAE6401EB0F11F
:1022E000807F10B501D3012010BD4FF0E024606164
:1022F0000F21601700F066FF0020A0610721216117
:1023000010BD30B590F88410012918D0012280F852
:1023100084202421C0F888100022202401680B6842
:102320000D6823F0005325F001050D604266016839
:102330000B60C0F8884080F88420104630BD022031
:1023400030BD70B5044690F8840001281DD00122EC
:1023500084F884202420C4F8880020680568026876
:1023600022F0010202602068826822F060620A4363
:102370008260204600F09CFB22682021002015602E
:10238000C4F8881084F8840070BD022070BD70B558
:10239000044690F8840001281DD0012284F884208E
:1023A0002420C4F8880020680568026822F0010231
:1023B00002602068826822F060420A438260204600
:1023C00000F076FB2268202100201560C4F88810F8
:1023D00084F8840070BD022070BD10B5040003D0E5
:1023E000D4F8880010B107E0012010BD002084F867
:1023F0008400204600F026F82420C4F888002068D5
:10240000016821F001010160204600F057FC01281D
:10241000EBD0A06A10B1204600F06CFB2068416848
:1024200021F4904141602068816821F02A01816097
:102430002068016841F0010101602046BDE81040BC
:1024400000F0BCBB10B5B4B0044614212EA8FEF7B2
:1024500024F8B8216846FEF720F819492068884218
:102460002BD100201E9001210446CDE900106846C2
:10247000FEF7BEFB08B1FEF776F81248016841F09E
:1024800010010160006800F0100033900D48103812
:10249000016841F00101016000682EAB022100F0EB
:1024A000010033904FF4C060072283E81300064810
:1024B0002EA9CDE93142FEF76BF834B010BD000013
:1024C00000100140F044025800000258FEE70000EE
:1024D00030B587B014216846FDF7DFFF1648016864
:1024E00041F004010160016801F0040105910168F7
:1024F00041F080010160016801F0800105910168EF
:1025000041F00101016000684FF460440B4D01226D
:1025100000F00100214605902846FEF747F900210A
:1025200000940120CDE90101284603916946FEF798
:102530002FF807B030BD0000E044025800080258F0
:102540002DE9F0414FF4800715480021134EBD00DE
:102550000722AC00C0E90321A300C0E907314162B2
:102560009A0081624FF4003CC162C0E90D21C16351
:10257000016441648164C164016541658165C0E9AC
:10258000055480E8C010FFF775FC002803D0BDE8B3
:10259000F041FDF7E8BFBDE8F081000000140058ED
:1025A000180000241848002110B5164C0C224FF4D6
:1025B00061230460C0E90131C160C0E90412816196
:1025C000C161016241628162FFF707FF08B1FDF757
:1025D000CAFF0D480021FFF7DAFE08B1FDF7C3FF7F
:1025E00009480021FFF7ADFE08B1FDF7BCFF064822
:1025F000FFF787FE002803D0BDE81040FDF7B3BF0A
:1026000010BD000000100140A0000024FEE7FEE71E
:10261000704700002DE9F047454D044689464FF0CC
:10262000000A2868C04380070AD0414E283E30681F
:1026300020F080603060FEF7BFF80746B04608E043
:102640000120BDE8F08700BFFEF7B6F8C01B0228E6
:1026500067D8D8F800000001F6D4206829684FF444
:10266000FE0721F47C313E0241EA00302860207AE6
:10267000A389B4F804C040022D4D2D495B1E227C75
:10268000ACF1010C1035091DA0F5007080B2521E8E
:10269000CCF3080C07EA034340EA0C00184306EAAF
:1026A0000262104328600868626920F0C00010438D
:1026B00008600A68A06922F0200202430A60281D0F
:1026C0000A6822F010020A6002684FF6F873E469A3
:1026D0009A4342EAC40202600868B9F1000F40F070
:1026E00010020A6011D00868B9F1010F11D040F44E
:1026F00000100860D8F80000444640F08060C8F838
:102700000000FEF759F805460DE0086840F4002087
:10271000EFE740F48010ECE7FEF74EF8401B02288C
:1027200001D903208DE720680001F5D5504688E7E0
:10273000284402582DE9F047454D044689464FF09C
:10274000000A2868C04380070AD0414E283E3068FE
:1027500020F080503060FEF72FF80746B04608E0C2
:102760000120BDE8F08700BFFEF726F8C01B022855
:1027700067D8D8F800008000F6D4208829684FF484
:10278000FE0721F07C713E0241EA00502860207A69
:10279000A389B4F804C040022D4D2D495B1E227C54
:1027A000ACF1010C1835091DA0F5007080B2521E65
:1027B000CCF3080C07EA034340EA0C00184306EA8E
:1027C0000262104328600868626920F44060104388
:1027D00008600A68A06922F4007202430A60281D9A
:1027E0000A6822F480720A6002684FF6F873E4699E
:1027F0009A4342EAC40202600868B9F1000F40F44B
:1028000080720A6011D00868B9F1010F11D040F050
:1028100080700860D8F80000444640F08050C8F846
:102820000000FDF7C9FF05460DE0086840F4800090
:10283000EFE740F40000ECE7FDF7BEFF401B022885
:1028400001D903208DE720688000F5D5504688E740
:102850002844025810B5026840F26F3351699469F8
:1028600044F0080494610268946944F0100494618F
:102870000268146824F001041460026814699C431F
:1028800014610268936823F44043936090F88120B8
:10289000042A0CD08A060AD5D0F8842042F080029F
:1028A000C0F884200268936943F02003936190F894
:1028B0008120032A0CD04A060AD5D0F8842042F0A1
:1028C0000402C0F884200268936943F040039361D6
:1028D0008A050AD5D0F8842042F00102C0F884208D
:1028E0000268936943F400739361C9050AD5D0F86F
:1028F000841041F00801C0F8841001688A6942F42C
:1029000080728A610021A0F86210A0F86A1010BDE0
:102910002DE9F0411C4616460D460746DDF81880A5
:102920000AE000BFFDF748FFA0EB0800A04202D379
:10293000601C01D00BE054B13868406935EA0000F2
:1029400007D00020B042EDD00020BDE8F081032088
:10295000FBE70120F6E77047FDF734BF30B59DB0C7
:102960004C216846FDF799FD202113A8FDF795FD40
:102970000220FDF7BDFF1D48016821F440410160C0
:102980000168002401F440411B9101688904FCD5D1
:1029900002200A9028230990C20301210C25CDE9C9
:1029A0000012CDE90B03CDE90D10CDE910540F90C5
:1029B00068461294FEF7CAFF08B172B6FEE74020DF
:1029C0001A9008230501CDE9163013ABCDE918059F
:1029D0003F21032283E8160013A81146FEF7A6FD47
:1029E000002801D072B6FEE71DB030BD184802586D
:1029F0002748F0B5274A016841F47001016010686A
:102A000000F00F00072804D2106820F00F00C01D4E
:102A1000106021490020204C10340B681F4D43F0FA
:102A200001030B6020600B682B400B60136803F000
:102A30000F03072B04D9136823F00F03DB1D13606A
:102A4000154C174A1834174B261D371D2060124CA1
:102A5000154D28343060261D3860371D23603B1D1E
:102A600035601C1D3A60251D2E1D1860331D226027
:102A70002860326018600A6843F2D204064B0B4D9E
:102A800022F4802260330A6018602C60F0BD0000E0
:102A900088ED00E000200052004402587FEDF6EA85
:102AA00080020101000202020000FF01004000520A
:102AB00030B5416EB9B101680D4B03F108048A6865
:102AC0008968C2F34262490F5D5C615C2D01B5FB10
:102AD000F1F1A0F86A10995CA25C0901B1FBF2F176
:102AE000A0F8681030BD0121A0F86A10F8E70000D6
:102AF0003632000890F82810C90706D00168C36A6A
:102B00004A6822F400321A434A6090F82810890774
:102B100006D50168036B4A6822F480321A434A6082
:102B200090F82810490706D50168436B4A6822F4DB
:102B300080221A434A6090F82810090706D50168D8
:102B4000836B4A6822F400421A434A6090F82810C6
:102B5000C90606D50168C36B8A6822F480521A43FD
:102B60008A6090F82810890606D50168036C8A6887
:102B700022F400521A438A6090F82810490611D5B1
:102B80000168436C4A6822F480121A434A60416C1F
:102B9000B1F5801F06D10168836C4A6822F4C00237
:102BA0001A434A6090F82810090606D50168C26CDD
:102BB000486820F400201043486070472DE9F8432E
:102BC00000250446C0F89050FDF7F6FD80462068C9
:102BD00020266FF07E470068000713D50022434689
:102BE00031042046009700F057FA58B1216851E8A7
:102BF000000F20F0800041E80002002AF6D1C4F85E
:102C0000886021E020680068400722D50022434602
:102C10004FF480012046009700F03EFAC8B12068CA
:102C200050E8001F21F4907140E80012002AF6D10C
:102C30002068083050E8001F21F0010140E8001230
:102C4000002AF5D1C4F88C60032084F88450BDE8D4
:102C5000F883C4F88860C4F88C60E56625670020B6
:102C600084F88450F3E7000010B5026852E8001FB2
:102C700021F4907142E80013002BF6D10E4B02684C
:102C8000083252E8001F194042E80014002CF6D127
:102C9000C16E012908D1026852E8001F21F010011D
:102CA00042E80013002BF6D100212022C0F88C202E
:102CB000C166416710BD0000FEFFFFEF2DE9F04344
:102CC00004468068E24E87B0E24B2168D4E90427CD
:102CD000D4F81CC010430A68002547EA0C073843A3
:102CE000324002430A602068E268416821F44051A2
:102CF000114341602268A1699A4201D0206A0143D0
:102D00009668DFF854C3D54FD54806EA0C060E4343
:102D100096602168666ACA6A22F00F023243CA626C
:102D20002268BA420ED1006800F0380018286FD02F
:102D30007ADCB8B308286CD010286BD18BE0282837
:102D400068D18EE0C7498A4209D1006800F00700C7
:102D500006285FD2DFE800F0507D7F818385C2497D
:102D60008A4209D1006800F0070006287BD2DFE81C
:102D700000F0437072747678BC498A4209D10068C9
:102D800000F0070006286ED2DFE800F036636567C2
:102D9000696BB7498A420BD1006800F0070006282A
:102DA00061D200E043E0DFE800F0275456585A5C57
:102DB000B0498A4206D1006800F0380018284CD08B
:102DC000B7DD31E0AC498A4209D1006800F0070064
:102DD000062848D2DFE800F0103D3F414345A749AF
:102DE0008A420BD1006800F0070006283BD2DFE8DA
:102DF00000F0033032343638002035E0A0498A42F2
:102E000009D1006800F03800182826D091DD0BE0C9
:102E100023E01EE027E09B498A420AD1006800F0C7
:102E20003800182819D084DD202888D11CE0012022
:102E30001AE09A4217D18A48001D006800F0070086
:102E4000062810D2DFE800F0030507090B0D022069
:102E50000AE0042008E0082006E0102004E020201A
:102E600002E0402000E080208749DFF820829A427B
:102E7000874A4FF400434FEA21174FF000064ED126
:102E800010281AD006DC022809D004280BD0082804
:102E90007ED10DE020283ED0402879D13DE0FDF7DD
:102EA00051FD014610E06846FDF75EFD01990BE01B
:102EB00003A8FDF7FBFD049906E01068800605D520
:102EC0001068C0F3C100C140002970D0606A676813
:102ED00038F8102007EB4703B1FBF2F0834257D8D4
:102EE000B0EB073F54D8002308461946FDF75EFAB9
:102EF00002467808130E120243EA012110183A46DE
:102F000071410023FDF752FA624AA0F540719142E7
:102F10003ED821688FE03946D8E71946D6E7D4F87D
:102F20001CC04FF6EF799C4546D1082819D005DC26
:102F300058B101280CD0042875D10DE0102815D007
:102F4000202835D040286ED134E0FEF73FFC01E068
:102F5000FEF74EFC014610E06846FDF705FD0199BD
:102F60000BE003A8FDF7A2FD049906E010688006B7
:102F700004D51068C0F3C100C140C1B1636A606884
:102F800038F81330B1FBF3F1490001EB500100E0D8
:102F900049E0B1FBF0F0A0F11001494543D84FF6EC
:102FA000F0732168C0F342021840104343E043E04D
:102FB0003946E3E71946E1E7082819D005DC58B19E
:102FC00001280CD004282ED10DE0102815D020287F
:102FD0002BD0402827D12AE0FEF7F8FB01E0FEF7CE
:102FE00007FC014610E06846FDF7BEFC01990BE0C6
:102FF00003A8FDF75BFD049906E01068800604D580
:103000001068C0F3C100C140B1B1636A606838F8AC
:103010001330B1FBF3F101EB5001B1FBF0F0A0F183
:103020001001494505D9012506E03946EDE7194665
:10303000EBE7216880B2C8600120A4F86A00A4F818
:10304000680028466667A66707B0BDE8F083000001
:10305000F369FFCF000C0058FFF4FF11001001408E
:10306000544402580044004000480040004C0040D6
:10307000005000400014014000780040007C0040F7
:1030800000180140001C01400090D0031E320008CF
:1030900000440258FFFC0F002DE9F04799461746FF
:1030A0000E460446089D4FF000082FE0681C2DD006
:1030B000FDF782FBA0EB0900A84214D89DB120685F
:1030C0000168490722D5C169C94309070DD40825FC
:1030D00005622046FFF7C8FDC4F89050012084F82F
:1030E0008480BDE8F0870320FBE7C069C04300058A
:1030F0000CD421684FF4006008622046FFF7B4FD4D
:103100002021C4F8901084F88480ECE72068C0691E
:1031100036EA000004D00020B842C7D00020E0E723
:103120000120F9E7FEE70000F0B587B000236C4608
:103130008DF8183021FA03F5ED0701D0F02600E0F4
:10314000C02620FA03F5C3F107077608ED07E65518
:1031500001D0F02600E0C02622FA03F5C3F10F07E4
:103160007608ED07E65501D0F02500E0C025C3F153
:1031700017066D085B1C082BA555DBDB4FF6FF74AB
:103180000F480022234606A9FEF778FF0C4800BF2F
:1031900090F881100129FBD109481822234669467D
:1031A000FEF76CFF25460024054801222B4606A9A0
:1031B000FEF764FF641C642CF6DB07B0F0BD000072
:1031C00018000024090700284FEA116104DB00F110
:1031D000E02080F80014704700F00F0000F1E020BC
:1031E00080F8141D70470000FDF7F4FAFFF7B6FBF6
:1031F000FFF76EF9FFF7A4F9FFF7D4F9044CA278B2
:1032000061782078FFF790FF6420FDF7AFF9F6E7CB
:10321000000000244FF04070E1EE100A70470100FA
:1032200002000400060008000A000C001000200044
:1032300040008000000101010103070100000804B3
:103240000204080101010000000001020304010260
:103250000304060708090000783200080000002473
:10326000180000000803000890320008180000242D
:10327000800B000024030008010101000100000090
:1032800010000000000000000090D0030090D00368
:04000005080002CD20
:00000001FF
