:020000040800F2
:10000000000400206D030008832B000891280008DD
:10001000812B0008DF040008412F000800000000C9
:10002000000000000000000000000000C92D0008D2
:10003000E104000800000000852B0008CB2D00081B
:100040008B0300088B0300088B0300088B03000858
:100050008B0300088B0300088B0300088B03000848
:100060008B0300088B0300088B0300088B03000838
:100070008B0300088B0300088B0300088B03000828
:100080008B0300088B0300088B0300088B03000818
:100090008B0300088B0300088B0300088B03000808
:1000A0008B0300088B0300088B0300088B030008F8
:1000B0008B0300088B0300088B0300088B030008E8
:1000C0008B0300088B0300088B0300088B030008D8
:1000D0008B0300088B0300088B0300088B030008C8
:1000E0008B0300088B030008000000008B0300084E
:1000F0008B0300088B0300088B0300088B030008A8
:100100008B0300088B0300088B0300088B03000897
:100110008B0300088B0300088B0300088B03000887
:100120008B0300088B0300088B0300088B03000877
:100130008B0300088B0300088B0300088B03000867
:1001400000000000000000000000000000000000AF
:100150008B0300088B0300088B0300088B03000847
:100160008B0300088B0300088B0300088B03000837
:100170008B0300088B0300088B03000800000000BD
:100180008B0300088B0300088B0300088B03000817
:100190008B0300088B0300088B0300088B03000807
:1001A0008B0300088B0300088B030008000000008D
:1001B0008B0300088B0300088B0300088B030008E7
:1001C0008B0300088B030008000000000000000003
:1001D00000000000000000008B0300080000000089
:1001E000000000000000000000000000000000000F
:1001F00000000000000000008B0300088B030008D3
:100200008B0300088B030008000000008B0300082C
:100210008B0300088B0300088B0300088B03000886
:100220008B030008000000008B03000800000000A2
:100230008B0300088B030008000000008B030008FC
:100240008B0300088B0300088B0300088B03000856
:100250008B0300088B0300088B0300088B03000846
:100260008B0300088B0300088B0300088B03000836
:100270008B0300088B0300088B03000800000000BC
:100280008B0300088B0300088B0300088B03000816
:10029000000000008B0300088B0300080000000032
:1002A000000000008B0300088B0300088B0300088C
:1002B0008B0300088B0300088B030008050500086A
:1002C0008B0300088B0300088B03000800F002F882
:1002D00000F03CF80AA090E8000C82448344AAF1A4
:1002E0000107DA4501D100F031F8AFF2090EBAE8A2
:1002F0000F0013F0010F18BFFB1A43F0010318475A
:10030000742D0000A42D0000103A24BF78C878C1D5
:10031000FAD8520724BF30C830C144BF04680C600B
:10032000704700000023002400250026103A28BF53
:1003300078C1FBD8520728BF30C148BF0B60704757
:100340001FB502F05BFE1FBD10B510BD00F08EF8AA
:100350001146FFF7F5FF02F005FE00F0ACF803B41C
:10036000FFF7F2FF03BC00F0B3F800000A48804733
:100370000A4880470A480047FEE7FEE7FEE7FEE737
:10038000FEE7FEE7FEE7FEE7FEE7FEE70548064973
:10039000064A074B70470000E9040008692E000870
:1003A000CD020008B801002400040020B803002496
:1003B0000000002010B5203AC0F00B80B1E81850C2
:1003C000203AA0E81850B1E81850A0E81850BFF43F
:1003D000F5AF5FEA027C24BFB1E81850A0E81850DE
:1003E00044BF18C918C0BDE810405FEA827C24BF32
:1003F00051F8043B40F8043B08BF7047D20728BFC0
:1004000031F8023B48BF11F8012B28BF20F8023B0E
:1004100048BF00F8012B70474FF0000200B51346AB
:1004200094469646203922BFA0E80C50A0E80C5014
:10043000B1F12001BFF4F7AF090728BFA0E80C50C5
:1004400048BF0CC05DF804EB890028BF40F8042BBE
:1004500008BF704748BF20F8022B11F0804F18BF2B
:1004600000F8012B7047704770477047754600F0E1
:100470002BF8AE4605006946534620F00700854636
:1004800018B020B5FFF782FFBDE820404FF000060E
:100490004FF000074FF000084FF0000B21F007016C
:1004A000AC46ACE8C009ACE8C009ACE8C009ACE8AF
:1004B000C0098D46704710B50446AFF30080204652
:1004C000BDE81040FFF74BBF0048704754010024BF
:1004D00001491820ABBEFEE7260002007047FEE788
:1004E000704772B6FEE70000054805490839026802
:1004F00042F00202026008688004FCD570470000E8
:100500000C480258014800F0C5BA00004800002419
:10051000F0B503684FF6FC716D4C426BD3F8845014
:100520008D4345EA8205C3F88450036853F8845F1D
:10053000068F25F47F0545EA06451D60836B654DF2
:100540009F180268D2F888308B4343EA8703C2F8C9
:100550008830026852F8883F868F23F4FE0343EA0E
:1005600006431360066856F8A03FC26B8B4307EB47
:10057000420243EA82033360076857F8A03FB0F8AD
:10058000406023F4FE0343EA06433B60D0E91036A3
:1005900003FB06220368D3F8B0608E4346EA820666
:1005A000C3F8B0600368B0F84860D3F8B07027F4BF
:1005B000FE0747EA0646C3F8B060D0E91267036851
:1005C00006FB0722D3F8AC608E4346EA8206C3F8E6
:1005D000AC60D0E91467036806FB0722D3F8F0602B
:1005E0008E4346EA8206C3F8F0600368B0F85860AC
:1005F000D3F8F07027F47C1747EA0646C3F8F0609A
:100600000368876D53F8C06F02EB47028E4346EADA
:10061000820119600168B0F85C20D1F8C03023F481
:100620007C1343EA0242C1F8C020016890F86020C0
:10063000D1F8C03023F07C5343EA0262C1F8C020F5
:10064000416B04EB8101C166826B01EB82020267A0
:10065000C36B02EBC3024267D0E91034634302EB81
:1006600083028267D0E91234634302EB8302C267DC
:10067000D0E91434634302EB8302C0F88020836D19
:1006800002EBC303C0F88430C46D826E544303EBA5
:100690008403C0F88830046E544303EB8402C0F82E
:1006A0009020AA420AD9D0F89C20032142F02002CF
:1006B000C0F89C2080F898100120F0BD002200E0D6
:1006C00004C1D0F890308B42FAD80020F0BD000071
:1006D00000AC0040FCD30040F0B58E680C69D1E955
:1006E000005744EA0604DFB145F080452C43866E8E
:1006F000D1E906C54F695E4391F8203045EA0C0503
:10070000B1F80CC0D0F884E0002047EA03630C4F36
:100710001D430EEB860345EA0C45E3E802450AE07B
:1007200044EA8544E3E71418155C001DD4F8014041
:1007300045EA042410C3CC683C5D8442F3D8F0BD84
:100740000830000800B589B001AB002002210090FC
:10075000012283E807000490694605900B4800F0E9
:100760008FF808B1FFF7BDFE08480022012100F014
:100770000FF808B1FFF7B5FE044800F022FD00288D
:1007800001D0FFF7AEFE09B000BD00004800002414
:1007900010B590F89830012B09D0022B07D0D0F873
:1007A0009C1041F00201C0F89C10012010BD0368AC
:1007B0009C6D0C4203D1DC6D44F0010404E09C6D9F
:1007C00031EA04041FD00324DC658B0505D50368DA
:1007D000D3F8E0401443C3F8E0404B0505D5036867
:1007E000D3F8E4401443C3F8E4400068084A01EA3F
:1007F0000203446D074A1C434465106840EA917047
:100800001060002010BDDC6D44F00204DCE7000045
:10081000FFFFCF3F14A8004070B5044690F8980041
:10082000022804D0D4F89C0040F008000DE02068B5
:10083000D0F8C03013F07C5F0BD0D0F8C4309B02EE
:100840000CD5D4F89C0040F40070C4F89C00012042
:1008500070BDD4F89C0040F02000F6E7D0F8C4004A
:10086000C0F3044520462B46FFF736FF21680120E0
:10087000A840C1F8D000C4F89400002070BD7047B3
:1008800070B590F89820012A09D0022A07D0D0F834
:100890009C1041F00201C0F89C10012070BD0B6853
:1008A000CA6883B10B69072A43EA427325D00C7AE0
:1008B0004A6942EA84724968006F00EBC100C0E9EE
:1008C0000032002070BD072A0DD00C7AD6060D8AA2
:1008D0004B6943EA847246EA0543C06E49681A438D
:1008E00040F82120EDE70B8A4FF06055D1E906244E
:1008F00042EA034245EA0423EFE78A69DBE77047EF
:1009000070470000F0B590F898500024022D04D0F4
:10091000D0F89C1041F0080129E0402905D0412978
:1009200029D0056D8D4219D942E00568D5F8A0603F
:1009300016F4FE0F12D0D5F8A460760613D0D5F8C1
:10094000A460F60105D5D5F8A06016F0004F00D5DB
:100950000124D5F8A470466F456C24E0D0F89C10B3
:1009600041F0200103E0D0F89C1041F48071C0F800
:100970009C100120F0BD0568D5F8B06016F4FE0F9C
:10098000ECD0D5F8B4607606EDD0D5F8B460F601B9
:1009900005D5D5F8B06016F0004F00D50124D5F884
:1009A000B470866FC56CC7F305273C44654302E00D
:1009B000456DC66F4D4306EB85052E6816F08046E3
:1009C00056602E6836D026F060461660D5F800C016
:1009D00000262E4F0CF0005CC2F808C0D5F800C00D
:1009E0000CF0004CC2F810C0B5F804C01FFA8CFC23
:1009F000C2F81CC0D5F804C0CCF3034CC2F80CC03C
:100A0000D5F804C00CF4801CC2F814C0D5F804C09A
:100A10000CF4001CC2F818C0D5F804C0CCF3066C66
:100A2000C2F820C0D5F804C008354FEADC7CC2F813
:100A300024C008E0C6F38A46C7E700BF15F806C021
:100A400003F806C0761CD2F80CC017F80CC0B445E9
:100A5000F4D840290AD041290CD020294FF00102B6
:100A60000CD200688A40C0F898200DE00068C0F8F9
:100A7000A84009E00068C0F8B84005E0006801F04F
:100A80001F018A40C0F89C200020F0BD08300008FB
:100A9000704700002DE9FF5FDFF80CB304460BF14F
:100AA0000401DBF8000025680F68AA468007D5F826
:100AB0005090696DD5F850806E6D2A6DD5F854C090
:100AC0002B6D00EA8770009009F470496F6D286DF6
:100AD00001EA09010191DAF85410DAF85490DAF8D1
:100AE000505008F00F0806EA0806029602F0F002DD
:100AF00003F071536FEA09061F4000F060700CEAC2
:100B0000020CCDF80CC0F20501EA00090CD4E84350
:100B1000C00509D400214FF48073CAF85030CBF8D7
:100B200000102046FFF7B4FF700512D4E8434005DB
:100B30000FD4206800234FF48068D0F8DC20D0F870
:100B4000E410C0F85080CBF800301140204600F08F
:100B500057FBDFF858A2009850B12268830F00EAD3
:100B60000A001065CBF8003020460099FFF787FE99
:100B7000019850B12268830F00EA0A001065CBF893
:100B800000302046019900F03DFB029850B12268E8
:100B9000830F00EA0A001065CBF800302046029966
:100BA00000F0FAFA039850B12268830F00EA0A00B5
:100BB0001065CBF800302046039900F001FB3005AA
:100BC0000CD4E843000509D4236800204FF40062E8
:100BD0001A65CBF80000204600F015FBB00512D4D2
:100BE000E84380050FD4206800234FF40078D0F844
:100BF000D820D0F8E010C0F85080CBF80030114079
:100C0000204600F0FEFA30030CD4E843000309D478
:100C1000236800204FF400221A65CBF8000020461C
:100C200000F0B8FAF0030CD4E843C00309D42368F9
:100C300000204FF480321A65CBF80000204600F007
:100C4000DEFA70030CD4E843400309D42268002084
:100C50004FF480231365CBF80000204600F0CEFA55
:100C6000B0030FD4E84380030CD4236800204FF472
:100C700000321A65CBF80000D4F89C0040F08000E8
:100C8000C4F89C00B9F1000F0BD022684FEA9973A9
:100C900009EA0A001065CBF8003049462046FFF704
:100CA0002FFE5FB12268BB0F07EA0A001065CBF880
:100CB0000030D4F89C003843C4F89C003C492068BC
:100CC000884268D1606881468068800763D0D9F81F
:100CD0002060D9F82410D9F82080D9F82400D9F858
:100CE00020C0D9F82470D9F82030D9F82450D9F888
:100CF000202003F4FC4306F00F0AD9F824601D40BD
:100D0000D9F824B008F030080CF4C07C02F4F022CA
:100D100011EA0A0100EA080807EA0C0706EA0206D7
:100D2000D9F820A004D0C9F82010204600F063FABA
:100D3000B8F1000005D0616808624146204600F025
:100D40005CFA6FEA0B0040060ED46FEA0A00400618
:100D50000AD460684021C36BC26B01622046190C43
:100D600002F03F0200F048FA2FB16068076239468E
:100D7000204600F03FFA35B160680562D4F89C0067
:100D80002843C4F89C0036B160680662D4F89C0021
:100D90003043C4F89C00D4F89C00002802D02046C0
:100DA000FFF7ADFDBDE8FF9F10A80040FFFFCF3F5C
:100DB00000A000402DE9F04194B08D494C2204463A
:100DC0006846FFF7F7FA64B18A4D2068A84202D15D
:100DD00000F58070606094F898004FF0000820B132
:100DE00008E0012014B0BDE8F081204684F8998025
:100DF00000F002F92068816921F01001816100F0A2
:100E000017FB0327064604E000F012FB801B0A28AC
:100E100011D8206880690007F6D42068816941F004
:100E20000101816100F004FB06460DE000F000FBCB
:100E3000801B0A2808D9D4F89C0040F00100C4F8AF
:100E40009C0084F89870CCE720688069C007EDD0DA
:100E50002068816941F002018161207C01282068BD
:100E6000816937D041F040018161607C01282068B0
:100E7000816932D021F480418161A07C0128206801
:100E800081692DD041F4805181612068A268816917
:100E900021F44071114381612068816921F0A4012E
:100EA00081612068016921F010010161E068012879
:100EB00019D010B302281BD02068816941F080014D
:100EC00081612068016941F010010161E068032837
:100ED0000ED012E021F04001C6E741F48041CBE79B
:100EE00021F48051D0E72068816941F0040103E0DA
:100EF0002068816941F020018161207E6FF0FF024E
:100F0000D4E90773A68A1102400602EB0727A0F175
:100F10000070384327685B1E184301EB06463043D8
:100F2000F861A068B0F5407F11D104F12800A68CCB
:100F30006FF00F0C89C801EB0641401E02EB032243
:100F4000104322680CEB071318430843D060206E4F
:100F500030B12068626ED0F8C0101143C0F8C010E4
:100F6000D4E917126846D14209D02168A36E51F81E
:100F7000C82F50F8233022F007021A430A60216C70
:100F800049B12168626C51F8BC3F50F8226023F0EF
:100F9000070232430A60A16C51B12168E36C51F839
:100FA000BC2F50F8233022F0700242EA03120A608C
:100FB000216D51B12168626D51F8BC3F50F822009B
:100FC00023F4E06242EA002008602068A84204D1CD
:100FD0006068816821F003018160C4F89480012178
:100FE000C4F89C8084F898102046FFF791FAF9E63F
:100FF0001830000800A000402DE9F047B4B0814649
:1010000014212EA8FFF708FAB8216846FFF704FA62
:101010005A4C0026D9F800004FF08051584A0C3C39
:10102000554F4FF00208554D9042DFF858A14FF050
:10103000090930D100201B914A13CDE900206846F0
:1010400000F018FB08B1FFF74CFA3868401C386014
:10105000012807D1286840F480702860286800F4CF
:1010600080703390206840F00800206020680322E0
:101070002E922EA900F00800CDE92F863196CDE9F9
:101080003290504600F0C0F800221320114600F0C4
:1010900095FA132033E03C4A904235D100201B9151
:1010A0004FF40042CDE90020684600F0E3FA08B1B1
:1010B000FFF717FA3868401C3860012807D1286804
:1010C00040F480702860286800F4807033902068B5
:1010D00040F002002060206860222E922EA900F0CD
:1010E0000200CDE92F863196CDE93290274800F0F5
:1010F0008BF800221420114600F060FA142000F052
:101100004FFA34B0BDE8F087214A9042F9D100206F
:101110001B914FF40042CDE90020684600F0AAFA86
:1011200008B1FFF7DEF93868401C3860012807D1A4
:10113000286840F480702860286800F4807033903C
:10114000206840F00800206020684FF440512E9144
:10115000052200F00800CDE92F862EA93196CDE9B1
:101160003220504600F050F800229F20114600F037
:1011700025FA9F20C3E7000000000024EC44025839
:1011800000A00040000C025800A4004000040258D7
:1011900000D4004070470000084B402170B5A3F117
:1011A0002C041D46221DFFF7ADFB6068112804D1F9
:1011B0002846BDE8704001F0B3BB70BD14010024A7
:1011C000704790F89810012907D0D0F89C1041F092
:1011D0000401C0F89C1001207047022180F898108B
:1011E000002201688B6923F001038B61C0F89C2009
:1011F0001046704770477047704770477047704798
:1012000070477047704770472DE9F84F03247A4DB7
:1012100000234FF001094FF0B04B4FF00F0AE4E00C
:1012200009FA03F6324078D00F7907F00307012F4F
:1012300001D0022F1AD187684FEA430ED1F80CC0B3
:1012400004FA0EF827EA08070CFA0EFC4CEA070C21
:10125000C0F808C0476891F804C0B743CCF3001C3D
:101260000CFA03FC4CEA070CC0F804C00E79F643F4
:10127000B6070BD0C6684FEA43088F6804FA08FC2B
:1012800026EA0C0607FA08F73743C7600E7906F01E
:101290000306022E12D1DE080F694FEA437C00EBF1
:1012A0008606B646366A4FEADC6C0AFA0CF807FA8C
:1012B0000CF726EA08063743CEF820700F79066847
:1012C0004FEA430807F0030704FA08FC07FA08F797
:1012D00026EA0C06374307604E6816F4403F1CD0E0
:1012E000464E376847F00207376036689F0706F0BA
:1012F0000206009623F0030606F1B046B6463F0FFD
:10130000D6F80864DFF8F8800AFA07FC404526EAB8
:101310000C0603D14FF0000C3AE065E0DFF8E4C0C2
:10132000604502D14FF0010C32E0DFF8DCC06045CF
:1013300002D14FF0020C2BE0DFF8D0C0604502D1A3
:101340004FF0030C24E0DFF8C8C0604502D14FF035
:10135000040C1DE0DFF8BCC0604502D14FF0050C65
:1013600016E0DFF8B4C0604502D14FF0060C0FE084
:10137000DFF8A8C0604502D14FF0070C08E0DFF8A5
:10138000A0C0604502D14FF0090C01E04FF00A0CFB
:101390000CFA07FC4CEA060CCEF808C44F68DBF8E0
:1013A0000060FF0226EA020600D516435F46CBF82E
:1013B0000060D1F804C0DBF804605FEA8C2C26EAF8
:1013C000020600D516437E606E684F6826EA020664
:1013D000BF0300D516436E602E684F6826EA0206EA
:1013E000FF0300D516432E605B1C0A6832FA03F631
:1013F0007FF416AFBDE8F88F80000058F44402581F
:10140000000002580004025800080258000C02585C
:10141000001002580014025800180258001C02580C
:10142000002402580AB1816170470904FBE70000FB
:101430000148806870470000040000240248816869
:10144000027811448160704704000024032010B525
:1014500000F0D4F800F0DAFE0F4A1049146813685F
:10146000C4F3032203F00F038A5CC95C02F01F027D
:1014700001F01F01D0400A4A20FA01F11160094928
:1014800008600F2000F010F808B1012010BD00F036
:1014900079F8002010BD000018440258643000089C
:1014A000140000241000002470B50D4D0446287867
:1014B000A0B14FF47A71B1FBF0F00A490968B1FBB1
:1014C000F0F001F0D2F948B9102C07D200222146E1
:1014D000501E00F073F800206C6070BD012070BDDC
:1014E0000400002410000024154BF0B5083B42789E
:1014F00013491A600B680A1F23F001030B6043684D
:101500001360057BC67A827A437B2D07847B45EA8C
:101510000665C77B90F809C0067A90F800E045EAB6
:10152000C24040EA834040EA444040EA074040EA83
:101530000C2040EA460040EA0E000860F0BD0000C2
:10154000A0ED00E0BFF35F8F044800210368034A69
:1015500023F48033036070321160704724ED00E0A3
:10156000074A40F00100064970321060086840F4F4
:1015700080300860BFF34F8FBFF36F8F704700005C
:1015800024ED00E0054808B5016841F00201016062
:10159000006800F00200009008BD0000F44402580A
:1015A000002809DB410900F01F028900012001F138
:1015B000E0219040C1F80001704700000E4BF0B4EC
:1015C0001B680D46C3F30223C3F10706042E00D99E
:1015D0000426191D072901D2002300E0DB1E012487
:1015E00004FA06F19C40491E2940641E99401440AB
:1015F0002143F0BC01F0A5BC0CED00E0064900F071
:10160000070210B54FF6FF040868044B204040EA7B
:1016100002201843086010BD0CED00E00000FA0540
:10162000134970B50A68D243520705D5096801F01D
:101630000701814213D118E00A6822F00702024331
:101640000A60FFF7F5FE0A4D4FF47A760446083D2E
:1016500007E000BFFFF7ECFE001BB04201D90120FC
:1016600070BD2868C0438004F4D4002070BD000021
:101670000C4802582DE9FE4F0546DFF800A450F84B
:10168000081B0024FD4FC943019005F128002646A0
:101690000AF1240A009008011DD4686E50B1B0F51B
:1016A000801F0CD0B0F5001F0ED0B0F5401F1ED02B
:1016B00001240FE0386840F40030386017E00198EA
:1016C000022101F061FA03E00098022101F0ECFA36
:1016D00004000CD026462888C043C00523D4A86D3A
:1016E00005281ED2DFE800F00C11161B1B006A6EE5
:1016F000DAF8001021F440111143CAF80010EAE7AB
:10170000386840F40030386009E00198002101F0A9
:101710003BFA03E00098002101F0C6FA0446C4B188
:1017200000E0012426462888DFF85083C04308F1F2
:101730002C0840052FD4D5F8A400B0F5C00F28D050
:1017400010DCB8B1B0F5001F19D0B0F5800F0FD183
:101750001AE0AA6DDAF8001021F007011143CAF867
:101760000010E0E7B0F5000F13D0B0F5200F10D057
:1017700001240FE0386840F40030386009E0019837
:10178000002101F001FA03E00098002101F08CFA39
:10179000044694B126462888C043000530D4D5F8C5
:1017A000A800B0F1407F29D011DCC0B1B0F1807F3A
:1017B0001AD0B0F1007F10D11BE0D5F8A420D8F8E2
:1017C000001021F460011143C8F80010E3E7B0F104
:1017D000806F13D0B0F1A06F10D001240FE03868F3
:1017E00040F40030386009E00198002101F0CCF9A4
:1017F00003E00098002101F057FA044694B1264610
:101800002868DFF878B2C0430BF1200B80011FD4A9
:10181000E86CD8B110280FD0202812D0302815D06D
:10182000012414E0D5F8A820D8F8001021F0E061D8
:101830001143C8F80010E3E7386840F4003038601E
:1018400004E00198022101F09FF9044674B1264694
:101850002888C043C0042BD4E86DB0F5005F20D0C9
:101860000DDCA0B1B0F5805F0FD115E0EA6CDBF8BC
:10187000001021F030011143CBF80010E8E7B0F57B
:10188000405F13D0B0F5804F10D001240FE03868CE
:1018900040F40030386009E00198002101F074F94B
:1018A00003E00098002101F0FFF904468CB12646C0
:1018B0002888C043800429D4286EB0F5403F23D047
:1018C00010DC08B3B0F5803F14D0B0F5003F0FD165
:1018D00015E0EA6DDAF8001021F4E0411143CAF88E
:1018E0000010E5E7B0F5802F0ED0B0F5A02F0BD09B
:1018F00001240AE00198012101F046F903E0009873
:10190000012101F0D1F9044694B126462888C0434C
:1019100040042AD4D5F8AC00B0F1405F23D010DCED
:1019200008B3B0F1805F14D0B0F1005F0FD115E0C3
:101930002A6EDAF8001021F4E0211143CAF80010F1
:10194000E4E7B0F1804F0ED0B0F1A04F0BD00124EE
:101950000AE00198012101F017F903E00098012144
:1019600001F0A2F9044674B126462888C043000459
:101970001FD4E86ED8B1B0F1805F0ED0B0F1005F37
:1019800010D0012414E0D5F8AC20D8F8001021F0D4
:10199000E0411143C8F80010E7E7386840F4003030
:1019A000386004E00198012101F0EEF8044674B1BA
:1019B00026462868C043C0011ED4A86CD0B10128B7
:1019C0000ED0022811D0032814D0012413E0EA6EAF
:1019D000DAF8001021F040511143CAF80010E8E78E
:1019E000386840F40030386004E00198022101F0CA
:1019F000CBF804466CB126462868C043400255D453
:101A00001F48016841F480710160FFF711FD8146B4
:101A10000EE0AA6CDBF8001021F003011143CBF8B3
:101A20000010E9E7FFF704FDA0EB090064283BD8AC
:101A300013480068C005F5D5BCBBDFF84090B5F889
:101A4000B01009F14409D9F8000001F4407100F424
:101A50004070884211D0D9F80010D9F8002021F444
:101A6000407142F48032C9F80020D9F8002022F4F5
:101A70008032C9F80020C9F8001003E02C44025855
:101A800000480258D5F8B000B0F5807F19D1FFF7B3
:101A9000CFFC029011E000BFFFF7CAFC0299411A87
:101AA00041F28830814208D9032426462878DFF89D
:101AB0001494C043C00721D03CE0D9F8000080074F
:101AC000EAD5D5F8B010C1F301200328FE480DD0A7
:101AD000016821F47C510160B5F8B020D9F80010FC
:101AE000C2F30B021143C9F80010DFE7F74A03689D
:101AF00002EA111223F47C511143ECE7A86F182875
:101B000016D005DCA0B1082808D0102804D10AE0BE
:101B100020280DD028280BD001240AE001980121AB
:101B200001F032F803E00098012101F0BDF804460D
:101B300064B126462878C04380071ED4686F062803
:101B400019D2DFE800F0160C11161616AA6FD9F894
:101B5000001021F038011143C9F80010EAE701989C
:101B6000012101F011F803E00098012101F09CF837
:101B700004467CB100E0012426462878C043400793
:101B80001FD4D5F89000062819D2DFE800F0160C13
:101B9000111616166A6FD9F8001021F007011143CB
:101BA000C9F80010E9E70198012100F0EDFF03E01A
:101BB0000098012101F078F80446A4B100E0012466
:101BC00026462878C04380062BD4D5F88C00B0F187
:101BD000405F24D011DC10B3B0F1805F15D0B0F1BC
:101BE000005F10D116E0D5F89020D8F8001021F051
:101BF00007011143C8F80010E3E7B0F1804F0ED0A1
:101C0000B0F1A04F0BD001240AE00198002100F0B0
:101C1000BBFF03E00098022101F046F8044694B1AE
:101C200026462878C04340062BD4D5F89800B0F556
:101C3000406F24D011DC10B3B0F5806F15D0B0F533
:101C4000006F10D116E0D5F88C20D9F8001021F0E3
:101C5000E0411143C9F80010E3E7B0F5805F0ED012
:101C6000B0F5A05F0BD001240AE00198002100F03C
:101C70008BFF03E00098022101F016F8044694B1AE
:101C800026462878C04300062BD4D5F89C00B0F532
:101C9000C04F24D011DC10B3B0F5005F15D0B0F503
:101CA000804F10D116E0D5F89820D8F8001021F414
:101CB000E0511143C8F80010E3E7B0F5004F0ED033
:101CC000B0F5204F0BD001240AE00198002100F06C
:101CD0005BFF03E00098022100F0E6FF044654B1E8
:101CE00026462878C04300071ED4D5F88000B0F5FA
:101CF000805F0AD00FE0D5F89C20D8F8001021F4BE
:101D000060411143C8F80010EBE70098022100F091
:101D1000CBFF00B10126D5F88020D9F8001021F4BE
:101D200040511143C9F800102878C043C00613D4AD
:101D3000D5F89400B0F5807F05D10098022100F01D
:101D4000B3FF00B10126D5F89420D8F8001021F493
:101D500040711143C8F800102868C043000316D42E
:101D6000D5F8A00038B1B0F5803F09D0B0F5003FFC
:101D70000BD001240AE00198002100F005FF03E0E8
:101D80000098022100F090FF04468CB12646286896
:101D9000C043400322D4D5F88400B0F5801F11D091
:101DA000B0F5001F13D0B0F5401F15D0012414E08A
:101DB000D5F8A020D8F8001021F440311143C8F81C
:101DC0000010E4E7386840F40030386004E0009820
:101DD000012100F069FF04465CB126462868C04333
:101DE000C0031CD4286D70B1B0F5803F10D0012421
:101DF00014E0D5F88420D9F8001021F440111143E3
:101E0000C9F80010EAE7386840F40030386004E0B0
:101E10000198022100F0B8FE0446DCB1264628688D
:101E2000C043800005D40098022100F03DFF00B1BE
:101E300001262868C04380031BD4E86FB8B1B0F511
:101E4000807F10D0B0F5007F11D0B0F5407F0ED06C
:101E500001240DE02A6DDBF8001021F480311143DC
:101E6000CBF80010DBE7386840F4003038607CB312
:101E700026462868C043C00207D42A6FDAF800104B
:101E800021F000411143CAF800102868C0438002C5
:101E900007D4AA6EDAF8001021F080711143CAF855
:101EA00000102868C043400009D40748016821F4A5
:101EB000004101600168D5F8B42011430160286831
:101EC000C04306E05444025810440258CFFFFF00BC
:101ED0001DE007D46A6DDBF8001021F0405111437A
:101EE000CBF800102868C043000208D4D5F8882039
:101EF000D9F8001021F440011143C9F800102879E5
:101F00000024C04300F00100204309D00EE0EA6F36
:101F1000D9F8001021F440711143C9F80010A8E766
:101F20000198002100F030FE00B106462879C04338
:101F300000F00200204305D10198012100F024FEA9
:101F400000B106462879C04300F00400204305D1C3
:101F50000198022100F018FE00B106462879C0431E
:101F600000F00800204305D10098002100F09CFEFD
:101F700000B106462879C04300F01000204305D187
:101F80000098012100F090FE00B106462879C04378
:101F900000F02000044304D10098022100F084FEE8
:101FA00000B916B10120BDE8FE8F0020FBE700005C
:101FB0002DE9F05F04000F467ED0DFF83882D8F8B4
:101FC000000000F00F00B8420CD2D8F8001021F049
:101FD0000F013943C8F80010D8F8000000F00F00D6
:101FE000B84269D12078844D40070AD52069296814
:101FF00001F07001884204D9296821F07001014381
:10200000296020787C4E361D00070AD5606931684A
:1020100001F07001884204D9316821F07001014358
:1020200031602078C0060AD5A069316801F4E0610A
:10203000884204D9316821F4E0610143316020789D
:10204000DFF8B4B180060BF1080B0CD5E1695846F6
:10205000DBF8002002F07002914204D9026822F0FD
:1020600070020A430260207880070AD5E068296878
:1020700001F00F01884204D9296821F00F010143C2
:1020800029602078C0073ED05B49A26828681839CB
:1020900020F47060104328606068022818D003287C
:1020A00019D00968012819D0490700294ADADFF850
:1020B00048A1AAF1080A00E044E0DAF8002022F082
:1020C00007020243CAF80020FFF7B2F9814612E086
:1020D00009688903E9E709688901E6E7C905E4E7D2
:1020E000FFF7A6F9A0EB090141F28830814202D93D
:1020F0000320BDE8F09F6168DAF8000000F03800C6
:10210000B0EBC10FECD1207880070AD5E0682968D0
:1021100001F00F01884204D2296821F00F01014328
:102120002960D8F80010404601F00F01B9420BD9E0
:10213000016821F00F0139430160006800F00F00D1
:10214000B84201D00120D4E7207840070AD52069A1
:10215000296801F07001884204D2296821F07001D9
:1021600001432960207800070AD56069316801F0D1
:102170007001884204D2316821F07001014331605E
:102180002078C0060AD5A069316801F4E061884270
:1021900004D2316821F4E061014331602078800687
:1021A0000CD5E1695846DBF8002002F0700291423C
:1021B00004D2026822F070020A43026000F026F89E
:1021C0000E492A682B68C2F3032203F00F038A5CCE
:1021D000C95C02F01F0201F01F01D040084A20FA3A
:1021E00001F111600749086007480068BDE8F05F29
:1021F000FFF75AB900200052184402586430000812
:10220000140000241000002408000024454970B583
:1022100045480968434B103B11F0380208D00111C2
:10222000082A03D0102A0BD0182A0BD0084670BDFC
:1022300019688906FBD51968C1F3C101C84070BD92
:102240003A4870BD3749374D18310C1D24350A689E
:10225000096826682D6802F0030406F00102C1F344
:102260000511C5F3CC0515FB02F200EE102AB8EEFD
:10227000400AE9B32F4ADFED2E0AB7EE001A6CB11F
:10228000DFED2D1A012C01D0022C43D002EE101AE2
:102290001068F8EE422A81EEA22A1EE01C68A4060D
:1022A00011D51B6801EE901A1168C3F3C103F8EE53
:1022B000612AD84001EE900AC1F30800F8EE611AD5
:1022C00081EEA22A0BE001EE901ADFED1C2A00BF7E
:1022D000F8EE611A106882EEA12AC0F3080001EE40
:1022E000900AF8EE611A40EE201A31EE810A00E001
:1022F00015E022EE000A1068C0F34620401C00EEF4
:10230000900AF8EE600A80EE201ABCEEC10A10EEC8
:10231000100A70BD01EE901ADFED092AD8E70020FF
:1023200070BD0000104402580090D00300366E01CA
:1023300000000039304402580024744A0024744CD0
:10234000001BB74B2DE9F05F04007DD0FF4F2078D4
:10235000FE4D1837DFF8F483103DC00748D0D8F899
:102360000000396800F03800102815D0182803D173
:1023700001F0030002280FD06068B0F5803F12D052
:1023800010B1B0F5A02F18D0286820F48030286054
:10239000286820F4802009E02868800328D5606838
:1023A0000028D2D024E0286840F48030286060689B
:1023B00088B1FFF73DF8064609E0286840F4802020
:1023C0002860F0E7FFF734F8801B64287ED828687F
:1023D0008003F7D50CE0FFF72BF8064605E000BFB9
:1023E000FFF726F8801B6428F0D828688003F7D40C
:1023F0002078800756D5D8F80000DFF85093396868
:1024000010F03800A9F10C090ED0182801D1880766
:102410000AD0E068A8B3296821F0190101432960B6
:10242000FFF706F8064628E02868400702D5E0686E
:1024300000288AD0E168286820F019000843286045
:10244000FEF7F6FF064606E0D2E000BFFEF7F0FF1B
:10245000801B0228BAD828684007F7D5217CD9F814
:10246000002022F0FE4242EA0161C9F8001019E0A2
:10247000FEF7DEFF801B0228A8D828684007F7D5A2
:10248000ECE7FFE7286820F001002860FEF7D0FFA6
:10249000064604E0FEF7CCFF801B022896D8286889
:1024A0004007F7D42078C00646D5D8F80000DFF8FA
:1024B0009C92396800F03800A9F10409082812D06C
:1024C000182805D101F00300012800E0CEE00AD071
:1024D000E0690028286820D040F080002860FEF7DE
:1024E000A7FF064615E02868C00502D5E0698028E8
:1024F0007ED194F82010D9F8002022F07C5242EAD4
:102500000161C9F8001017E0FEF792FF801B022856
:10251000A0D82868C005F7D5EBE720F08000286038
:10252000FEF786FF064604E0FEF782FF801B0228C6
:1025300090D82868C005F7D42078000729D58348AB
:102540006169643000298146016811D041F00101C0
:102550000160FEF76DFF064605E000BFFEF768FF6D
:10256000801B022888D8D9F800008007F6D510E033
:1025700021F001010160FEF75BFF064605E000BFA8
:10258000FEF756FF801B022870D8D9F8000080079C
:10259000F6D42078800623D5A0690028286810D0BA
:1025A00040F480502860FEF743FF064605E000BF78
:1025B000FEF73EFF801B022858D828688004F7D514
:1025C0000EE020F480502860FEF732FF064604E05B
:1025D000FEF72EFF801B022848D828688004F7D415
:1025E0002078400751D5DFF86891D9F8001000E055
:1025F00015E141F48071C9F80010FEF719FF064695
:1026000005E000BFFEF714FF801B64282ED8D9F820
:102610000000C005F6D54D4EA068603601280AD0EE
:1026200008B1052813D0306820F001003060306810
:1026300020F0040002E0306840F001003060A06843
:1026400041F2883A98B1FEF7F3FE81460AE030681D
:1026500040F004003060EEE7FEF7EAFEA0EB09016F
:10266000514503D830688007F6D50EE072E0FEF7DA
:10267000DFFE814606E000BFFEF7DAFEA0EB0901AF
:10268000514567D830688007F6D4606A00287CD04E
:10269000DFF8B8A0D8F800100AF1200A4FF6F87B4E
:1026A0000AF10408C1F3C2010329AAF104096DD09B
:1026B0000228286820F08070286003D0FEF7B8FE5A
:1026C000044681E0FEF7B4FE064604E0FEF7B0FEE5
:1026D000801B022875D828688001F7D4E26A40F28E
:1026E000F331386854F8283F884340EA0210184311
:1026F0003860217B4FF4FE0C22894FF0FE47208A80
:102700004902267D521E401EA1F5007189B2C2F316
:1027100008021143761E0CEA00400143484607EACE
:1027200006621143CAF80010D9F8001021F0010127
:10273000C9F80010D8F80030266A23EA0B0343EAF0
:10274000C601C8F80010D9F8001004E0104402587F
:102750000048025835E0A26921F00C011143C9F884
:1027600000100168E26921F0020111430160016873
:1027700041F480310160016841F400310160016879
:1027800041F480210160016801E06CE020E041F04B
:1027900001010160286840F080702860FEF748FE63
:1027A000044604E0FEF744FE001B022809D828680E
:1027B0008001F7D557E000BFFEF73AFE001B022864
:1027C00002D90320BDE8F09F28688001F4D44AE0D4
:1027D00039680128DAF8000021D0A26A01F0030369
:1027E00093421CD1E26AC1F305118A4217D1216BD1
:1027F000C0F30802491E8A4211D1616BC0F3462220
:10280000491E91420BD1A16BC0F30642491E914271
:1028100005D1E16BC0F30660491E814201D0012061
:10282000D0E7A16C4646D8F80000C0F3CC00814246
:1028300019D0D9F800004D4620F00100C9F8000079
:10284000FEF7F6FD4FEA0007FEF7F2FDB842FBD0B7
:10285000A26C306820EA0B0040EAC20030602868B1
:1028600040F0010028600020ACE7401EB0F1807FFE
:1028700010B501D3012010BD4FF0E02460610F219D
:10288000601700F05EFB0020A0610721216110BDF0
:10289000FEE710B580F828100C0A80F82A20CC2317
:1028A00080F82940011D80F82B3000F128020368D0
:1028B0001846FDF7B1FF002803D0BDE81040FDF732
:1028C00010BE10BD9FED132ADFED132A10B542880C
:1028D00010218388C4881046F0EE420AB0EE620AE6
:1028E00000F078FB0D4A1021F0EE420A184682ED06
:1028F000060AB0EE620A00F06DFB82ED070A1021B5
:102900002046F0EE420AB0EE620A00F063FB82ED70
:10291000080A10BD33336B4233336BC21C010024F1
:102920000178012907D0022907D0032907D00429FB
:1029300007D100F067B8FFF7C5BF00F035B800F069
:1029400001B87047014610B540888B88CC881021AB
:10295000DFED100A9FED100A00F03CFB0F4A10213A
:102960009FED0F2ADFED0F2A82ED000AF0EE420AFA
:10297000B0EE620A184600F02DFB82ED020A10212B
:102980002046F0EE420AB0EE620A00F023FB82ED30
:10299000010A10BD0000B4420000B4C21C010024B2
:1029A00000003443000034C39FED132ADFED132AE7
:1029B00010B5428810218388C4881046F0EE420A80
:1029C000B0EE620A00F006FB0D4A1021F0EE420A5A
:1029D000184682ED030AB0EE620A00F0FBFA82EDBF
:1029E000040A10212046F0EE420AB0EE620A00F01E
:1029F000F1FA82ED050A10BD1F850B421F850BC23F
:102A00001C010024F0B582783E2390F801E00179A2
:102A100003EA920CC47893074779C5790E07827947
:102A20004CEA8E104FEA934CB30C4CEA041402F0BB
:102A30003F0643EA870344EA11140E21F7EE000A29
:102A4000BFEE000A43EA921345EA062500F0C2FAF7
:102A5000104A0E21F7EE000A204682ED090ABFEE69
:102A6000000A00F0B7FA82ED0A0A0E211846F7EEC6
:102A7000000ABFEE000A00F0ADFA82ED0B0A0E214B
:102A80002846F7EE000ABFEE000A00F0A3FA82ED36
:102A90000C0AF0BD1C010024194800212DE9F04169
:102AA000164F012481600322076000F11407C16002
:102AB0000A2501741D2641740423847487E8640088
:102AC000C0E90852C0E90A560563C0E90D143C305C
:102AD00080E80E00C0E90313C0E90513C161C0E935
:102AE0000812C0E90A133C38FEF764F9002803D045
:102AF000BDE8F041FDF7F5BCBDE8F08100D4004031
:102B00004800002430B587B014216846FDF784FCE6
:102B10001948016841F004010160016801F00401F5
:102B20000591016841F080010160016801F08001B8
:102B30000591016841F008010160016801F0080198
:102B40000591016841F002010160006801220B4D0E
:102B5000D40300F00200214605902846FEF762FCEF
:102B6000002100940120CDE9010128460391694626
:102B7000FEF74AFB07B030BDE04402580008025897
:102B8000FEE7FEE7704700002DE9F047454D04469B
:102B900089464FF0000A2868C04380070AD0414E9A
:102BA000283E306820F080603060FEF741FC074628
:102BB000B04608E00120BDE8F08700BFFEF738FC12
:102BC000C01B022867D8D8F800000001F6D420689E
:102BD00029684FF4FE0721F47C313E0241EA0030BF
:102BE0002860207AA389B4F804C040022D4D2D49F5
:102BF0005B1E227CACF1010C1035091DA0F50070A4
:102C000080B2521ECCF3080C07EA034340EA0C00E2
:102C1000184306EA0262104328600868626920F0DF
:102C2000C000104308600A68A06922F02002024335
:102C30000A60281D0A6822F010020A6002684FF636
:102C4000F873E4699A4342EAC40202600868B9F181
:102C5000000F40F010020A6011D00868B9F1010FAE
:102C600011D040F400100860D8F80000444640F04D
:102C70008060C8F80000FEF7DBFB05460DE0086841
:102C800040F40020EFE740F48010ECE7FEF7D0FBC3
:102C9000401B022801D903208DE720680001F5D5EB
:102CA000504688E7284402582DE9F047454D044630
:102CB00089464FF0000A2868C04380070AD0414E79
:102CC000283E306820F080503060FEF7B1FB0746A8
:102CD000B04608E00120BDE8F08700BFFEF7A8FB82
:102CE000C01B022867D8D8F800008000F6D42088DE
:102CF00029684FF4FE0721F07C713E0241EA005042
:102D00002860207AA389B4F804C040022D4D2D49D3
:102D10005B1E227CACF1010C1835091DA0F500707A
:102D200080B2521ECCF3080C07EA034340EA0C00C1
:102D3000184306EA0262104328600868626920F4BA
:102D40004060104308600A68A06922F400720243E0
:102D50000A60281D0A6822F480720A6002684FF631
:102D6000F873E4699A4342EAC40202600868B9F160
:102D7000000F40F480720A6011D00868B9F1010FA9
:102D800011D040F080700860D8F80000444640F050
:102D90008050C8F80000FEF74BFB05460DE00868C0
:102DA00040F48000EFE740F40000ECE7FEF740FB62
:102DB000401B022801D903208DE720688000F5D54B
:102DC000504688E7284402587047FEF737BB00009A
:102DD00070B59CB04C216846FDF71EFB202113A85E
:102DE000FDF71AFB0220FEF71BFC1E48016821F4C8
:102DF000404101600168002401F440411B910168D9
:102E00008904FCD502200A9028230990C2030121DD
:102E10000D910425CDE90012CDE90B030C26129487
:102E2000CDE90E50CDE910646846FFF78BFA08B182
:102E300072B6FEE740201A9008230501CDE916304E
:102E400013ABCDE918053F21032283E8160013A830
:102E50001146FFF7ADF8002801D072B6FEE71CB0AE
:102E600070BD0000184802582D48F0B52D4A016881
:102E700041F470010160106800F00F00072804D2CF
:102E8000106820F00F00C01D106027490020264C5C
:102E900010340B68254D43F001030B6020600B6874
:102EA0002B400B60136803F00F03072B04D9136842
:102EB00023F00F03DB1D13601B4C1D4A18341D4B00
:102EC000261D371D2060184C1B4D28343060261DF0
:102ED0003860371D23603B1D35601C1D3A60251D81
:102EE0002E1D1860331D22602860326018600B6848
:102EF0000D4A0D4C23F48023D4320B6060342060E3
:102F00001068C0040BD4136843F2D2000B4943F499
:102F1000805313600860106820F480501060F0BD8A
:102F200088ED00E000200052004402587FEDF6EAF0
:102F300080020101000202020000FF010040005275
:102F4000FEE7090700284FEA116104DB00F1E020E9
:102F500080F80014704700F00F0000F1E02080F8C6
:102F6000141D70471FB5002400940194029403942B
:102F7000FEF7E8FA01208DF80C001F218DF80810EB
:102F800087228DF809208DF80D008DF80000684625
:102F90008DF80A408DF80E408DF8014001948DF8AF
:102FA0000B408DF80F40FEF79FFA0420FEF7D8FA89
:102FB000FEF74CFAFFF70CFFFFF7A4FDFFF76CFDDF
:102FC000FDF7C0FB024803220121FFF762FCF9E78D
:102FD0001800002401EE100A70EEC00A0120B8EEBD
:102FE000C11A8840401E21EE201A00EE900AF8EE29
:102FF000E01AC1EE210A30EE800A70474FF04070AF
:10300000E1EE100A70470000000102030405060704
:10301000080C1014182030400000000000000000D0
:10302000000000000000000000000000010000009F
:103030000200000003000000040000000000000087
:10304000050000000000000000000000000000007B
:10305000060000000000000000000000000000006A
:103060000700000000000000010203040102030445
:1030700006070809A43000080000002448000000EA
:1030800008030008A430000800000020000400002D
:1030900024030008EC3000084800002470030000FE
:1030A00024030008000000000100000010000000E0
:1030B000000000000090D0030090D00348000024DE
:1030C000FF060000000000000000000004000000F7
:1030D00000000000000000000000000000000000F0
:0C30E000000000000000000000000000E4
:04000005080002CD20
:00000001FF
